:100000000C946B000C9488000C9488000C9488006D
:100010000C9488000C9488000C9488000C94880040
:100020000C9488000C9488000C9488000C94880030
:100030000C9488000C9488000C9488000C94880020
:100040000C9488000C9488000C9488000C94880010
:100050000C94880007634236B79BD8A71A396856B4
:1000600018AEBAAB558C1D3CB7CC5763BD6DEDFDDA
:10007000753EF6177231BF000000803F0800000097
:10008000BE922449123EABAAAA2ABECDCCCC4C3E8D
:1000900000000080BEABAAAAAA3E00000000BF007C
:1000A0000000803F0000000000084178D3BB438778
:1000B000D1133D190E3CC3BD4282AD2B3E68EC828C
:1000C00076BED98FE1A93E4C80EFFFBE01C4FF7F11
:1000D0003F000000000011241FBECFE5D8E0DEBFC6
:1000E000CDBF10E0A0E6B0E0E6ECFAE002C005907B
:1000F0000D92A237B107D9F720E0A2E7B0E001C026
:100100001D92A23DB207E1F70E94A0010C94610587
:100110000C9400008FE081BD08959C0183E083BFB3
:1001200083E808C082BF98B7916098BFA89508B6C9
:1001300000FEFDCF21503109A8F713BE08956623B4
:1001400011F0C09A01C0C098C19882BB8FEF81BBEB
:10015000C29A000000000000C2980895C098C19A99
:1001600011BA90B3C29A00000000000011BA90B317
:10017000C29899239CF30E949F000895B89AB99A57
:10018000BA9A80E190E00E948D0060E080E30E94D6
:100190009F0085E090E00E948D0060E080E30E9477
:1001A0009F0081E090E00E948D0060E08CE30E945F
:1001B000AE0060E08CE00E94AE0060E086E00E944D
:1001C000AE0060E081E00E94AE000895CF93DF931F
:1001D00014BA15BA44B321E030E0F90102C0EE0FC1
:1001E000FF1F8A95E2F7CF01842B84BB85B3EB0117
:1001F00024960C2E02C0220F331F0A94E2F7282BFC
:1002000025BB81E090E00E948D0023B330E002C066
:1002100035952795CA95E2F781E090E020FF02C06E
:1002200080E090E0DF91CF9108950F931F93CF93DB
:10023000DF9300E010E018C0BE01C8010E94E60094
:10024000009749F0000F111F000F111FC00FD11FA1
:10025000CE0101960CC02196C430D10569F70F5F1D
:100260001F4F0430110519F0C0E0D0E0E5CFDF9159
:10027000CF911F910F9108950F931F93CF93DF9309
:10028000161617068CF48B01C0E0D0E0D89A81E0F6
:1002900090E00E948D00D89881E090E00E948D004F
:1002A00021960C171D0791F7DF91CF911F910F91A8
:1002B0000895CF92DF92EF92FF920F931F93CF9307
:1002C000DF9302E710E0C0E0D0E00F2EC12CD12C6C
:1002D000F0EAEF2EF0E4FF2EF02DBE010D2E000C03
:1002E000880B990B0E94760220E030E040E451E454
:1002F0000E94CC019B01AC0160E070E080E090E4E2
:100300000E946F0320E030E04CE553E40E940203BA
:10031000F8016083718382839383C482D582E682ED
:10032000F7822196085F1F4FCC30D105B1F6DF91DF
:10033000CF911F910F91FF90EF90DF90CF90089594
:100340000E948A000E94BE000E94590181E08ABB7F
:10035000C2E7D0E00E9415010197C8F0FC01E05A05
:10036000FF4F8081813399F46C817D818E819F81E3
:100370000E943E026B017C01688179818A819B81A8
:100380000E943E02DC01CB01B6010E943C0181E0EB
:1003900090E00E948D00DECF0E94E0010C94C80224
:1003A0000E94C10258F00E94BA0240F029F45F3F57
:1003B00029F00C94B10251110C94FC020C94B70278
:1003C0000E94D90268F39923B1F3552391F3951B49
:1003D000550BBB27AA2762177307840738F09F5F66
:1003E0005F4F220F331F441FAA1FA9F335D00E2ED3
:1003F0003AF0E0E832D091505040E695001CCAF740
:100400002BD0FE2F29D0660F771F881FBB1F261702
:1004100037074807AB07B0E809F0BB0B802DBF01D9
:10042000FF2793585F4F3AF09E3F510578F00C94A8
:10043000B1020C94FC025F3FE4F3983ED4F386953E
:1004400077956795B795F7959F5FC9F7880F911DC9
:100450009695879597F90895E1E0660F771F881FB5
:10046000BB1F621773078407BA0720F0621B730B68
:10047000840BBA0BEE1F88F7E09508950E944502A1
:100480006894B1110C94FC0208950E94E10288F076
:100490009F5798F0B92F9927B751B0F0E1F0660F48
:1004A000771F881F991F1AF0BA95C9F714C0B13089
:1004B00091F00E94FB02B1E008950C94FB02672FBB
:1004C000782F8827B85F39F0B93FCCF386957795B8
:1004D0006795B395D9F73EF49095809570956195A1
:1004E0007F4F8F4F9F4F0895E89409C097FB3EF4CC
:1004F00090958095709561957F4F8F4F9F4F992371
:10050000A9F0F92F96E9BB279395F69587957795EE
:100510006795B795F111F8CFFAF4BB0F11F460FFAE
:100520001BC06F5F7F4F8F4F9F4F16C0882311F006
:1005300096E911C0772321F09EE8872F762F05C01A
:10054000662371F096E8862F70E060E02AF09A95B5
:10055000660F771F881FDAF7880F9695879597F9AA
:10056000089597F99F6780E870E060E008959FEF35
:1005700080EC089500240A9416161706180609063A
:10058000089500240A941216130614060506089509
:10059000092E0394000C11F4882352F0BB0F40F491
:1005A000BF2B11F460FF04C06F5F7F4F8F4F9F4FD1
:1005B000089557FD9058440F551F59F05F3F71F053
:1005C0004795880F97FB991F61F09F3F79F08795BA
:1005D0000895121613061406551FF2CF4695F1DF43
:1005E00008C0161617061806991FF1CF86957105D3
:1005F000610508940895E894BB2766277727CB0107
:1006000097F908950E9415030C94C8020E94BA023B
:1006100038F00E94C10220F0952311F00C94B10231
:100620000C94B70211240C94FC020E94D90270F3BE
:10063000959FC1F3950F50E0551F629FF001729F87
:10064000BB27F00DB11D639FAA27F00DB11DAA1F96
:10065000649F6627B00DA11D661F829F2227B00DE3
:10066000A11D621F739FB00DA11D621F839FA00D6E
:10067000611D221F749F3327A00D611D231F849FBE
:10068000600D211D822F762F6A2F11249F57504015
:100690009AF0F1F088234AF0EE0FFF1FBB1F661F90
:1006A000771F881F91505040A9F79E3F510580F059
:1006B0000C94B1020C94FC025F3FE4F3983ED4F337
:1006C000869577956795B795F795E7959F5FC1F7FD
:1006D000FE2B880F911D9695879597F90895FA013D
:1006E000EE0FFF1F309621053105A1F1611571054F
:1006F00061F48038BFE39B0749F168949038810525
:1007000061F08038BFEF9B0741F099234AF5FF3F26
:10071000E1053105210519F1E8940894E795D9011F
:10072000AA2329F4AB2FBE2FF85FD0F310C0FF5FD0
:1007300070F4A695E0F7F73950F019F0FF3A38F465
:100740009F779F930DD00F9007FC9058089546F027
:100750000C94B70260E070E080E89FE308954FE7F3
:100760009F775F934F933F932F930E946A042F913B
:100770003F914F915F910E9402030C94C70329F4AB
:1007800016F00C94B1020C94FB020C94B7020E9478
:10079000E102A8F39638A0F707F80F92E8942BE34C
:1007A0003AEA48EB5FE70E9418030F920F920F920C
:1007B0004DB75EB70F920E94B204E4E5F0E00E94EC
:1007C000F9034F915F91EF91FF91E595EE1FFF1FA8
:1007D00049F0FE57E0684427EE0F441FFA95E1F711
:1007E0004195550B0E942C040F9007FE0C94200499
:1007F0000895DF93CF931F930F93FF92EF92DF92B1
:100800007B018C01689406C0DA2EEF010E9415036B
:10081000FE01E894A5912591359145915591A6F356
:10082000EF010E94FE04FE019701A801DA9469F726
:10083000DF90EF90FF900F911F91CF91DF9108957E
:100840009B01AC0160E070E080E89FE30C94CC0178
:100850000C94B1020C9453050E94E102D8F3992341
:10086000C9F3940F511DA3F39150504094F059F0E7
:10087000882332F0660F771F881F91505040C1F7D0
:100880009E3F51052CF7880F911D9695879597F9F6
:1008900008955F3FACF0983E9CF0BB278695779516
:1008A0006795B79508F4B1609395C1F7BB0F58F7FA
:1008B00011F460FFE8CF6F5F7F4F8F4F9F4FE3CF03
:1008C0000C94FC0216F00C9453050C94B702689437
:1008D0000C94B1020E94E102A8F39923C1F3AEF394
:1008E000DF93CF931F930F93FF92C92FDD278823A8
:1008F0002AF02197660F771F881FDAF720E030E093
:1009000040E85FEB9FE3883920F0803E38F0219685
:100910008F770E94E704ECE7F0E004C00E94E70450
:10092000E9EAF0E00E94F9038B01BE01EC01FB2E25
:100930006F5771097595771F880B990B0E94760286
:1009400028E132E741E35FE30E941503AF2D9801F0
:10095000AE01FF900F911F91CF91DF910E94FE0495
:100960000C94C802FA01DC01AA0FBB1F9B01AC0169
:10097000BF5728F4222733274427507820C0B75187
:1009800090F4AB2F0024469537952795011CA3952D
:10099000D2F3002071F0220F331F441FB395DAF316
:1009A0000ED00C94E60461307105A0E88A07B946C0
:1009B00030F49B01AC016627772788279078309622
:1009C00021F0208331834283538308955058BB27FD
:1009D000AA270E94FE040C94C8020E94BA0238F0B2
:1009E0000E94C10220F039F49F3F19F426F40C94C0
:1009F000B7020EF4E095E7FB0C94B102E92F0E94D8
:100A0000D90258F3BA17620773078407950720F0D5
:100A100079F4A6F50C94FB020EF4E0950B2EBA2F98
:100A2000A02D0B01B90190010C01CA01A0011124F4
:100A3000FF27591B99F0593F50F4503E68F11A16A0
:100A4000F040A22F232F342F4427585FF3CF469531
:100A500037952795A795F0405395C9F77EF41F1653
:100A6000BA0B620B730B840BBAF09150A1F0FF0F1D
:100A7000BB1F661F771F881FC2F70EC0BA0F621F09
:100A8000731F841F48F4879577956795B795F795F9
:100A90009E3F08F0B0CF9395880F08F09927EE0F8E
:100AA0009795879508959F3F31F0915020F4879551
:100AB00077956795B795880F911D9695879597F9C6
:060AC0000895F894FFCF39
:100AC6003132334134353642373839432A302344BC
:020AD60000001E
:00000001FF
