:100000000C942A000C9447000C9447000C94470071
:100010000C9447000C9447000C9447000C94470044
:100020000C9447000C9447000C9447000C94470034
:100030000C9447000C9447000C9447000C94470024
:100040000C9447000C9447000C9447000C94470014
:100050000C94470011241FBECFE5D8E0DEBFCDBF12
:1000600010E0A0E6B0E0E0E8F0E102C005900D92FB
:10007000AC3EB107D9F720E0ACEEB0E001C01D9274
:10008000AE3EB207E1F70E94E2010C943E080C94E8
:1000900000008FE081BD08959C0183E083BF89EF5C
:1000A00008C082BF98B7916098BFA89508B600FEB7
:1000B000FDCF21503109A8F713BE0895662311F032
:1000C000C09A01C0C098C19882BB8FEF81BBC29A11
:1000D000000000000000C2980895C098C19A11BAAB
:1000E00090B3C29A00000000000011BA90B3C29809
:1000F00099239CF30E945E000895B89AB99ABA9A1F
:1001000080E190E00E944C0060E080E30E945E008D
:1001100085E090E00E944C0060E080E30E945E0079
:1001200081E090E00E944C0060E08CE30E946D0052
:1001300060E08CE00E946D0060E086E00E946D004F
:1001400060E081E00E946D00089560E081E00E941F
:100150006D000895CF93C62F98E2899FC00D11249A
:1001600060E082E00E946D00CC2331F060E084E129
:100170000E946D00C150D1F7CF910895CF93DF93C6
:10018000EC012196FC018081882331F061E00E941E
:100190006D0089918111FACFDF91CF910895CF93AE
:1001A000DF9314BA15BA44B321E030E0F90102C07C
:1001B000EE0FFF1F8A95E2F7CF01842B84BB85B336
:1001C000EB0124960C2E02C0220F331F0A94E2F793
:1001D000282B25BB81E090E00E944C0023B330E047
:1001E00002C035952795CA95E2F781E090E020FF9F
:1001F00002C080E090E0DF91CF9108950F931F93AC
:10020000CF93DF9300E010E018C0BE01C8010E9448
:10021000CF00009749F0000F111F000F111FC00FF2
:10022000D11FCE0101960CC02196C430D10569F7CB
:100230000F5F1F4F0430110519F0C0E0D0E0E5CF8B
:10024000DF91CF911F910F9108954F925F926F921E
:100250007F928F929F92AF92BF92CF92DF92EF9256
:10026000FF920F931F93CF93DF93CDB7DEB7A29783
:100270000FB6F894DEBF0FBECDBF5C014B01BC01D1
:10028000990F880B990B0E94C9039B01AC0160E098
:1002900070E48CE996E40E941F030E9403030E940D
:1002A00091032B013C016B01772314F46F5F7F4FA7
:1002B00075956795072E000C880B990B0E94C90352
:1002C0002091710030917200409173005091740040
:1002D0000E94BF040E9491038B01C616D70619F431
:1002E0008201015011097201E01AF10A0E94A50071
:1002F000809176008F93809175008F939F928F925B
:10030000BF92AF9289EC90E09F938F93CE010196BC
:100310005C019F938F930E9454055F924F92FF92CE
:10032000EF921F930F938BED90E09F938F933E017D
:1003300092E1690E711C7F926F920E945405C50173
:100340000E94BE0060E081E00E94AA00C3010E94FA
:10035000BE0025E5289DC001299D900D1124B60100
:100360000E942C055B010FB6F894DEBF0FBECDBF17
:100370001616170684F4C12CD12CD89AC8010E94F5
:100380004C00D898C7010E944C009FEFC91AD90AA7
:10039000AC14BD0491F7A2960FB6F894DEBF0FBE61
:1003A000CDBFDF91CF911F910F91FF90EF90DF9024
:1003B000CF90BF90AF909F908F907F906F905F9005
:1003C0004F9008950E9449000E947D0081E08ABB01
:1003D0008DE090E09093ED008093EC0030C0809130
:1003E000EC009091ED008D3091054CF5880F991F30
:1003F000880F991FFC01EB56FF4FA281B381AA0F12
:10040000BB1FA958BF4F80917500909176006D91E8
:100410007C910E942C050190F081E02DEE0FFF1FD2
:10042000E358FF4F808191810E9425018091EC006B
:100430009091ED0001969093ED008093EC000E9466
:10044000FE00019760F2FC01E05AFF4F80818A3282
:1004500021F5C0907100D0907200E0907300F09090
:1004600074002AE939E949E95EE3C701B6010E944F
:10047000BA0418160CF0B3CF20E030E040E85EE399
:10048000C701B6010E9496026093710070937200DA
:100490008093730090937400A2CF803321F5C090B5
:1004A0007100D0907200E0907300F090740023E32C
:1004B00033E343EF5FE3C701B6010E941A038823C9
:1004C0000CF08DCF20E030E040E85EE3C701B601DC
:1004D0000E94970260937100709372008093730082
:1004E000909374007CCF833271F480917500909169
:1004F0007600843191050CF472CF44979093760086
:10050000809375006CCF843451F480917500909184
:1005100076004496909376008093750060CF109299
:10052000ED001092EC0080E090E060CF5058BB27C7
:10053000AA270E94AE020C9468040E945A0438F064
:100540000E94610420F039F49F3F19F426F40C94C2
:1005500057040EF4E095E7FB0C942804E92F0E9461
:10056000790458F3BA17620773078407950720F0D8
:1005700079F4A6F50C94B3040EF4E0950B2EBA2F83
:10058000A02D0B01B90190010C01CA01A001112499
:10059000FF27591B99F0593F50F4503E68F11A1645
:1005A000F040A22F232F342F4427585FF3CF4695D6
:1005B00037952795A795F0405395C9F77EF41F16F8
:1005C000BA0B620B730B840BBAF09150A1F0FF0FC2
:1005D000BB1F661F771F881FC2F70EC0BA0F621FAE
:1005E000731F841F48F4879577956795B795F7959E
:1005F0009E3F08F0B0CF9395880F08F09927EE0F33
:100600009795879508950E949B0490F09F3748F432
:10061000911116F40C94B40460E070E080E89FE35C
:10062000089526F01B16611D711D811D0C942E046A
:100630000C9449040E94040408F481E008950E9487
:1006400033030C9468040E94610458F00E945A0419
:1006500040F029F45F3F29F00C94280451110C94C8
:10066000B4040C9457040E94790468F39923B1F3FD
:10067000552391F3951B550BBB27AA2762177307C8
:10068000840738F09F5F5F4F220F331F441FAA1F5C
:10069000A9F335D00E2E3AF0E0E832D09150504018
:1006A000E695001CCAF72BD0FE2F29D0660F771FC6
:1006B000881FBB1F261737074807AB07B0E809F0AC
:1006C000BB0B802DBF01FF2793585F4F3AF09E3F31
:1006D000510578F00C9428040C94B4045F3FE4F3C3
:1006E000983ED4F3869577956795B795F7959F5F74
:1006F000C9F7880F911D9695879597F90895E1E0C0
:10070000660F771F881FBB1F621773078407BA071E
:1007100020F0621B730B840BBA0BEE1F88F7E09579
:1007200008950E9498036894B1110C94B40408953C
:100730000E94810488F09F5798F0B92F9927B751EC
:10074000B0F0E1F0660F771F881F991F1AF0BA9575
:10075000C9F714C0B13091F00E94B304B1E008951C
:100760000C94B304672F782F8827B85F39F0B93F0E
:10077000CCF3869577956795B395D9F73EF4909528
:100780008095709561957F4F8F4F9F4F0895E894A6
:1007900009C097FB3EF490958095709561957F4FC9
:1007A0008F4F9F4F9923A9F0F92F96E9BB27939577
:1007B000F695879577956795B795F111F8CFFAF487
:1007C000BB0F11F460FF1BC06F5F7F4F8F4F9F4FB8
:1007D00016C0882311F096E911C0772321F09EE816
:1007E000872F762F05C0662371F096E8862F70E07C
:1007F00060E02AF09A95660F771F881FDAF7880F56
:100800009695879597F90895990F0008550FAA0BAB
:10081000E0E8FEEF16161706E807F907C0F0121613
:100820001306E407F50798F0621B730B840B950B16
:1008300039F40A2661F0232B242B252B21F408956B
:100840000A2609F4A140A6958FEF811D811D089508
:1008500097F99F6780E870E060E00895882371F45D
:10086000772321F09850872B762F07C0662311F449
:1008700099270DC09051862B70E060E02AF09A9580
:10088000660F771F881FDAF7880F9695879597F977
:1008900008959F3F31F0915020F4879577956795A3
:1008A000B795880F911D9695879597F908959FEFB5
:1008B00080EC089500240A941616170618060906F7
:1008C000089500240A9412161306140605060895C6
:1008D000092E0394000C11F4882352F0BB0F40F44E
:1008E000BF2B11F460FF04C06F5F7F4F8F4F9F4F8E
:1008F000089557FD9058440F551F59F05F3F71F010
:100900004795880F97FB991F61F09F3F79F0879576
:100910000895121613061406551FF2CF4695F1DFFF
:1009200008C0161617061806991FF1CF869571058F
:100930006105089408950E948104A0F0BEE7B917EC
:1009400088F4BB279F3860F41616B11D672F782FE7
:100950008827985FF7CF869577956795B11D939512
:100960009639C8F30895E894BB2766277727CB010B
:1009700097F908950E94040408F48FEF08950E94E7
:10098000D2040C9468040E945A0438F00E94610456
:1009900020F0952311F00C9428040C945704112492
:1009A0000C94B4040E94790470F3959FC1F3950FE1
:1009B00050E0551F629FF001729FBB27F00DB11DE3
:1009C000639FAA27F00DB11DAA1F649F6627B00D73
:1009D000A11D661F829F2227B00DA11D621F739F5C
:1009E000B00DA11D621F839FA00D611D221F749F6A
:1009F0003327A00D611D231F849F600D211D822FB1
:100A0000762F6A2F11249F5750409AF0F1F08823D7
:100A10004AF0EE0FFF1FBB1F661F771F881F915004
:100A20005040A9F79E3F510580F00C9428040C9487
:100A3000B4045F3FE4F3983ED4F3869577956795C9
:100A4000B795F795E7959F5FC1F7FE2B880F911D2E
:100A50009695879597F9089597FB072E16F40094BD
:100A600007D077FD09D00E94400507FC05D03EF471
:100A7000909581959F4F0895709561957F4F08954A
:100A8000AA1BBB1B51E107C0AA1FBB1FA617B707B4
:100A900010F0A61BB70B881F991F5A95A9F78095D0
:100AA0009095BC01CD010895AEE0B0E0EAE5F5E037
:100AB0000C9415080D891E8986E08C831A8309839E
:100AC0008FEF9FE79E838D83AE01475E5F4F6F89F7
:100AD000788DCE0101960E947605EF81F885E00FB2
:100AE000F11F10822E96E4E00C943108ABE0B0E0E8
:100AF000ECE7F5E00C9407086C017B018A01FC012E
:100B000017821682838181FFCCC1CE0101963C0100
:100B1000F6019381F70193FD859193FF81917F0108
:100B2000882309F4BAC1853239F493FD859193FF86
:100B300081917F01853229F4B60190E00E946D0712
:100B4000E7CF912C212C312CFFE1F315D8F08B321B
:100B500079F038F4803279F08332A1F4232D2061CA
:100B60001DC08D3261F0803369F4232D216016C0E1
:100B7000832D8260382EE32DE4603E2E2AC0F32DB3
:100B8000F8601DC037FC2DC020ED280F2A3040F042
:100B90008E32B9F436FC81C1232D2064322E19C067
:100BA00036FE06C08AE0989E200D1124922E11C0B8
:100BB000EAE02E9E200D1124222EF32DF0623F2E0E
:100BC00008C08C3621F4832D8068382E02C0883608
:100BD00041F4F70193FD859193FF81917F0181118C
:100BE000B3CF982F9F7D9554933028F40C5F1F4FFF
:100BF0009FE399830DC0833631F0833771F08335DD
:100C000009F059C021C0F801808189830E5F1F4F10
:100C100088248394912C530113C02801F2E04F0ED5
:100C2000511CF801A080B18036FE03C0692D70E030
:100C300002C06FEF7FEFC5010E9462074C01820185
:100C4000F32DFF773F2E16C0280122E0420E511CE3
:100C5000F801A080B18036FE03C0692D70E002C0AB
:100C60006FEF7FEFC5010E9457074C01F32DF0682D
:100C70003F2E820133FC1BC0822D90E0881699061E
:100C8000B0F4B60180E290E00E946D072A94F4CFA0
:100C9000F50137FC859137FE81915F01B60190E047
:100CA0000E946D0721102A9421E0821A9108811474
:100CB000910471F7E8C0843611F0893641F5F801E6
:100CC00037FE07C060817181828193810C5F1F4F65
:100CD00008C060817181072E000C880B990B0E5F94
:100CE0001F4FF32DFF763F2E97FF09C090958095FB
:100CF000709561957F4F8F4F9F4FF0683F2E2AE090
:100D000030E0A3010E94A907882E861845C08537C8
:100D100031F4232D2F7EB22E2AE030E025C0932D12
:100D2000997FB92E8F36C1F018F4883579F0B5C0A7
:100D3000803719F0883721F0B0C0E92FE061BE2E6E
:100D4000B4FE0DC0FB2DF460BF2E09C034FE0AC0F6
:100D5000292F2660B22E06C028E030E005C020E131
:100D600030E002C020E132E0F801B7FE07C0608148
:100D70007181828193810C5F1F4F06C060817181F8
:100D800080E090E00E5F1F4FA3010E94A907882E0C
:100D90008618FB2DFF773F2E36FE0DC0232D2E7FAC
:100DA000A22E891458F434FE0BC032FC09C0832DE6
:100DB0008E7EA82E05C0B82CA32C03C0B82C01C071
:100DC000B92CA4FE0FC0FE01E80DF11D8081803317
:100DD00021F49A2D997EA92E09C0A2FE06C0B394D3
:100DE000B39404C08A2D867809F0B394A3FC11C093
:100DF000A0FE06C0B21488F4280C922C9B180EC0DA
:100E0000B21460F4B60180E290E00E946D07B394E2
:100E1000F7CFB21418F42B1802C0982C212CA4FE82
:100E200010C0B60180E390E00E946D07A2FE17C0DB
:100E3000A1FC03C088E790E002C088E590E0B6011D
:100E40000CC08A2D867859F0A1FE02C08BE201C049
:100E500080E2A7FC8DE2B60190E00E946D07891444
:100E600038F4B60180E390E00E946D079A94F7CFC2
:100E70008A94F301E80DF11D8081B60190E00E9493
:100E80006D078110F5CF222009F442CEB60180E231
:100E900090E00E946D072A94F6CFF6018681978133
:100EA00002C08FEF9FEF2B96E2E10C942308FC0128
:100EB0000590615070400110D8F7809590958E0F85
:100EC0009F1F0895FC016150704001900110D8F7F8
:100ED000809590958E0F9F1F08950F931F93CF932A
:100EE000DF93FB01238121FD03C08FEF9FEF2CC017
:100EF00022FF16C04681578124813581421753074E
:100F000044F4A081B1819D012F5F3F4F3183208345
:100F10008C93268137812F5F3F4F3783268314C000
:100F20008B01EC01FB010084F185E02D0995892BF3
:100F3000E1F6D80116968D919C9117970196179618
:100F40009C938E931697CE01DF91CF911F910F91B5
:100F50000895FA01AA27283051F1203181F1E8944F
:100F60006F936E7F6E5F7F4F8F4F9F4FAF4FB1E09C
:100F70003ED0B4E03CD0670F781F891F9A1FA11D97
:100F8000680F791F8A1F911DA11D6A0F711D811D98
:100F9000911DA11D20D009F468943F912AE0269F5D
:100FA00011243019305D3193DEF6CF010895462FBC
:100FB0004770405D4193B3E00FD0C9F7F6CF462F9D
:100FC0004F70405D4A3318F0495D31FD4052419306
:100FD00002D0A9F7EACFB4E0A695979587957795C3
:100FE0006795BA95C9F700976105710508959B014A
:100FF000AC010A2E06945795479537952795BA95D3
:10100000C9F7620F731F841F951FA01D08952F92AB
:101010003F924F925F926F927F928F929F92AF9288
:10102000BF92CF92DF92EF92FF920F931F93CF93D5
:10103000DF93CDB7DEB7CA1BDB0B0FB6F894DEBF6C
:101040000FBECDBF09942A88398848885F846E8492
:101050007D848C849B84AA84B984C884DF80EE80DC
:10106000FD800C811B81AA81B981CE0FD11D0FB6E5
:10107000F894DEBF0FBECDBFED010895F894FFCF09
:101080003132334134353642373839432A302344FC
:10109000000000803FC800010002000400DC00E9FD
:1010A00000F600050115012501370149015D0171B7
:1010B0000187019F010700010005000100030001F5
:1010C0000005000100070001000700010007000003
:1010D00000050001000500010005000000070001F7
:1010E000000A0001000A000000463A25303364205F
:1010F000443A25303364202025640054483A25645E
:0C11000020544C3A25642C20256400008B
:00000001FF
