:100000000C942A000C943F000C943F000C943F0089
:100010000C943F000C943F000C943F000C943F0064
:100020000C943F000C943F000C943F000C943F0054
:100030000C943F000C943F000C943F000C943F0044
:100040000C943F000C943F000C943F000C943F0034
:100050000C943F0011241FBECFE5D8E0DEBFCDBF1A
:1000600010E0A0E6B0E0E6EBFDE002C005900D92E6
:10007000A63CB107D9F70E94BF010C94D9060C9495
:1000800000008FE081BD08959C0183E083BF89EF6C
:1000900008C082BF98B7916098BFA89508B600FEC7
:1000A000FDCF21503109A8F713BE0895662311F042
:1000B000C09A01C0C098C19882BB8FEF81BBC29A21
:1000C000000000000000C2980895C098C19A11BABB
:1000D00090B3C29A00000000000011BA90B3C29819
:1000E00099239CF30E9456000895B89AB99ABA9A37
:1000F00080E190E00E94440060E080E30E945600AE
:1001000085E090E00E94440060E080E30E94560099
:1001100081E090E00E94440060E08CE30E94650072
:1001200060E08CE00E94650060E086E00E9465006F
:1001300060E081E00E946500089560E081E00E9437
:1001400065000895CF93DF93EC012196FC01808137
:10015000882331F061E00E94650089918111FACF16
:10016000DF91CF910895CF93DF9314BA15BA44B3BA
:1001700021E030E0F90102C0EE0FFF1F8A95E2F79F
:10018000CF01842B84BB85B3EB0124960C2E02C0D7
:10019000220F331F0A94E2F7282B25BB81E090E061
:1001A0000E94440023B330E002C035952795CA95DC
:1001B000E2F781E090E020FF02C080E090E0DF9174
:1001C000CF9108950F931F93CF93DF9300E010E03A
:1001D00018C0BE01C8010E94B300009749F0000F8B
:1001E000111F000F111FC00FD11FCE0101960CC0AF
:1001F0002196C430D10569F70F5F1F4F04301105F8
:1002000019F0C0E0D0E0E5CFDF91CF911F910F91C1
:1002100008954F925F926F927F928F929F92AF92CA
:10022000BF92CF92DF92EF92FF920F931F93CF93E3
:10023000DF93CDB7DEB761970FB6F894DEBF0FBE80
:10024000CDBF8C017B01BC01990F880B990B0E94DB
:100250008D029B01AC0160E070E48CE996E40E94A1
:10026000E3012B013C0120E030E040E05FE30E942D
:100270005A030E945502962E872EB62EA72EC30132
:10028000B2010E94CC0120E030E040E05FE30E9438
:100290005A030E9455026B010E949D008F929F920B
:1002A000FF92EF921F930F9384EB90E09F938F93B5
:1002B0008E010F5F1F4F1F930F930E94EF03C80122
:1002C0000E94A2000FB6F894DEBF0FBECDBF1E1471
:1002D0001F0484F400E010E0D89A8B2D9A2D0E9420
:1002E0004400D898C6010E9444000F5F1F4FE016DB
:1002F000F10691F761960FB6F894DEBF0FBECDBF41
:10030000DF91CF911F910F91FF90EF90DF90CF90F1
:10031000BF90AF909F908F907F906F905F904F9025
:1003200008950F931F93CF93DF9300E810E0C4EB81
:10033000D0E0D8011296ED91FC911397EE0FFF1FBC
:10034000EE59FF4F80916000909161006081718152
:100350000E94C703D801ED91FC91EE0FFF1FE859F1
:10036000FF4F808191810E9409010C5F1F4F0C1784
:100370001D07F9F6DF91CF911F910F9108950E940B
:1003800041000E94750081E08ABB0E94E200892B37
:10039000E1F30E949101F9CF0E943B0390F09F3757
:1003A00048F4911116F40C94540360E070E080E876
:1003B0009FE3089526F01B16611D711D811D0C948D
:1003C000CE020C94E9020E94F7010C9408030E94EB
:1003D000010358F00E94FA0240F029F45F3F29F02F
:1003E0000C94C80251110C9454030C94F7020E940F
:1003F000190368F39923B1F3552391F3951B550B1A
:10040000BB27AA2762177307840738F09F5F5F4FE7
:10041000220F331F441FAA1FA9F335D00E2E3AF026
:10042000E0E832D091505040E695001CCAF72BD03E
:10043000FE2F29D0660F771F881FBB1F261737078F
:100440004807AB07B0E809F0BB0B802DBF01FF27C1
:1004500093585F4F3AF09E3F510578F00C94C802D4
:100460000C9454035F3FE4F3983ED4F3869577955C
:100470006795B795F7959F5FC9F7880F911D96957A
:10048000879597F90895E1E0660F771F881FBB1FD6
:10049000621773078407BA0720F0621B730B840B83
:1004A000BA0BEE1F88F7E09508950E945C026894ED
:1004B000B1110C94540308950E94210388F09F57B2
:1004C00098F0B92F9927B751B0F0E1F0660F771F78
:1004D000881F991F1AF0BA95C9F714C0B13091F06E
:1004E0000E945303B1E008950C945303672F782FB3
:1004F0008827B85F39F0B93FCCF386957795679533
:10050000B395D9F73EF490958095709561957F4F9E
:100510008F4F9F4F0895E89409C097FB3EF4909544
:100520008095709561957F4F8F4F9F4F9923A9F0CC
:10053000F92F96E9BB279395F6958795779567955B
:10054000B795F111F8CFFAF4BB0F11F460FF1BC09F
:100550006F5F7F4F8F4F9F4F16C0882311F096E932
:1005600011C0772321F09EE8872F762F05C06623E0
:1005700071F096E8862F70E060E02AF09A95660F99
:10058000771F881FDAF7880F9695879597F9089552
:1005900097F99F6780E870E060E00895882371F420
:1005A000772321F09850872B762F07C0662311F40C
:1005B00099270DC09051862B70E060E02AF09A9543
:1005C000660F771F881FDAF7880F9695879597F93A
:1005D00008959F3F31F0915020F487957795679566
:1005E000B795880F911D9695879597F908959FEF78
:1005F00080EC089500240A941616170618060906BA
:10060000089500240A941216130614060506089588
:10061000092E0394000C11F4882352F0BB0F40F410
:10062000BF2B11F460FF04C06F5F7F4F8F4F9F4F50
:10063000089557FD9058440F551F59F05F3F71F0D2
:100640004795880F97FB991F61F09F3F79F0879539
:100650000895121613061406551FF2CF4695F1DFC2
:1006600008C0161617061806991FF1CF8695710552
:100670006105089408950E942103A0F0BEE7B91710
:1006800088F4BB279F3860F41616B11D672F782FAA
:100690008827985FF7CF869577956795B11D9395D5
:1006A0009639C8F30895E894BB2766277727CB01CE
:1006B00097F908950E946D030C9408030E94FA02B2
:1006C00038F00E94010320F0952311F00C94C80229
:1006D0000C94F70211240C9454030E94190370F334
:1006E000959FC1F3950F50E0551F629FF001729FD7
:1006F000BB27F00DB11D639FAA27F00DB11DAA1FE6
:10070000649F6627B00DA11D661F829F2227B00D32
:10071000A11D621F739FB00DA11D621F839FA00DBD
:10072000611D221F749F3327A00D611D231F849F0D
:10073000600D211D822F762F6A2F11249F57504064
:100740009AF0F1F088234AF0EE0FFF1FBB1F661FDF
:10075000771F881F91505040A9F79E3F510580F0A8
:100760000C94C8020C9454035F3FE4F3983ED4F316
:10077000869577956795B795F795E7959F5FC1F74C
:10078000FE2B880F911D9695879597F9089597FBF5
:10079000072E16F4009407D077FD09D00E94DB03E2
:1007A00007FC05D03EF4909581959F4F0895709574
:1007B00061957F4F0895AA1BBB1B51E107C0AA1F7B
:1007C000BB1FA617B70710F0A61BB70B881F991FF2
:1007D0005A95A9F780959095BC01CD010895AEE09A
:1007E000B0E0E5EFF3E00C94B0060D891E8986E0D9
:1007F0008C831A8309838FEF9FE79E838D83AE01DD
:10080000475E5F4F6F89788DCE0101960E9411047B
:10081000EF81F885E00FF11F10822E96E4E00C9432
:10082000CC06ABE0B0E0E7E1F4E00C94A2066C018A
:100830007B018A01FC0117821682838181FFCCC172
:10084000CE0101963C01F6019381F70193FD85915C
:1008500093FF81917F01882309F4BAC1853239F46D
:1008600093FD859193FF81917F01853229F4B60133
:1008700090E00E940806E7CF912C212C312CFFE15B
:10088000F315D8F08B3279F038F4803279F0833276
:10089000A1F4232D20611DC08D3261F0803369F4F5
:1008A000232D216016C0832D8260382EE32DE46055
:1008B0003E2E2AC0F32DF8601DC037FC2DC020ED60
:1008C000280F2A3040F08E32B9F436FC81C1232D36
:1008D0002064322E19C036FE06C08AE0989E200D94
:1008E0001124922E11C0EAE02E9E200D1124222EFA
:1008F000F32DF0623F2E08C08C3621F4832D8068E2
:10090000382E02C0883641F4F70193FD859193FF9C
:1009100081917F018111B3CF982F9F7D95549330A2
:1009200028F40C5F1F4F9FE399830DC0833631F08D
:10093000833771F0833509F059C021C0F8018081F7
:1009400089830E5F1F4F88248394912C530113C019
:100950002801F2E04F0E511CF801A080B18036FE54
:1009600003C0692D70E002C06FEF7FEFC5010E94E8
:10097000FD054C018201F32DFF773F2E16C02801A3
:1009800022E0420E511CF801A080B18036FE03C067
:10099000692D70E002C06FEF7FEFC5010E94F20584
:1009A0004C01F32DF0683F2E820133FC1BC0822DD9
:1009B00090E088169906B0F4B60180E290E00E94BB
:1009C00008062A94F4CFF50137FC859137FE819112
:1009D0005F01B60190E00E94080621102A9421E0F0
:1009E000821A91088114910471F7E8C0843611F0DD
:1009F000893641F5F80137FE07C060817181828137
:100A000093810C5F1F4F08C060817181072E000C1D
:100A1000880B990B0E5F1F4FF32DFF763F2E97FF2C
:100A200009C090958095709561957F4F8F4F9F4F2E
:100A3000F0683F2E2AE030E0A3010E944406882E91
:100A4000861845C0853731F4232D2F7EB22E2AE03B
:100A500030E025C0932D997FB92E8F36C1F018F460
:100A6000883579F0B5C0803719F0883721F0B0C0EB
:100A7000E92FE061BE2EB4FE0DC0FB2DF460BF2E49
:100A800009C034FE0AC0292F2660B22E06C028E015
:100A900030E005C020E130E002C020E132E0F801A2
:100AA000B7FE07C060817181828193810C5F1F4F07
:100AB00006C06081718180E090E00E5F1F4FA3014E
:100AC0000E944406882E8618FB2DFF773F2E36FEA7
:100AD0000DC0232D2E7FA22E891458F434FE0BC096
:100AE00032FC09C0832D8E7EA82E05C0B82CA32C05
:100AF00003C0B82C01C0B92CA4FE0FC0FE01E80D44
:100B0000F11D8081803321F49A2D997EA92E09C090
:100B1000A2FE06C0B394B39404C08A2D867809F06F
:100B2000B394A3FC11C0A0FE06C0B21488F4280C34
:100B3000922C9B180EC0B21460F4B60180E290E0D3
:100B40000E940806B394F7CFB21418F42B1802C011
:100B5000982C212CA4FE10C0B60180E390E00E94E6
:100B60000806A2FE17C0A1FC03C088E790E002C0FF
:100B700088E590E0B6010CC08A2D867859F0A1FE78
:100B800002C08BE201C080E2A7FC8DE2B60190E0DA
:100B90000E940806891438F4B60180E390E00E94B0
:100BA00008069A94F7CF8A94F301E80DF11D80812D
:100BB000B60190E00E9408068110F5CF222009F4CA
:100BC00042CEB60180E290E00E9408062A94F6CF59
:100BD000F6018681978102C08FEF9FEF2B96E2E1AD
:100BE0000C94BE06FC010590615070400110D8F7CE
:100BF000809590958E0F9F1F0895FC016150704065
:100C000001900110D8F7809590958E0F9F1F089541
:100C10000F931F93CF93DF93FB01238121FD03C02B
:100C20008FEF9FEF2CC022FF16C046815781248191
:100C300035814217530744F4A081B1819D012F5F94
:100C40003F4F318320838C93268137812F5F3F4F25
:100C50003783268314C08B01EC01FB010084F185EE
:100C6000E02D0995892BE1F6D80116968D919C917E
:100C70001797019617969C938E931697CE01DF9146
:100C8000CF911F910F910895FA01AA27283051F1B1
:100C9000203181F1E8946F936E7F6E5F7F4F8F4FAD
:100CA0009F4FAF4FB1E03ED0B4E03CD0670F781F0C
:100CB000891F9A1FA11D680F791F8A1F911DA11DF1
:100CC0006A0F711D811D911DA11D20D009F468942A
:100CD0003F912AE0269F11243019305D3193DEF6D2
:100CE000CF010895462F4770405D4193B3E00FD088
:100CF000C9F7F6CF462F4F70405D4A3318F0495D73
:100D000031FD4052419302D0A9F7EACFB4E0A69555
:100D10009795879577956795BA95C9F70097610577
:100D2000710508959B01AC010A2E069457954795CD
:100D300037952795BA95C9F7620F731F841F951FC2
:100D4000A01D08952F923F924F925F926F927F92D3
:100D50008F929F92AF92BF92CF92DF92EF92FF92CB
:100D60000F931F93CF93DF93CDB7DEB7CA1BDB0B77
:100D70000FB6F894DEBF0FBECDBF09942A8839881C
:100D800048885F846E847D848C849B84AA84B98423
:100D9000C884DF80EE80FD800C811B81AA81B9812F
:100DA000CE0FD11D0FB6F894DEBF0FBECDBFED0143
:060DB0000895F894FFCF46
:100DB600C800010002000400DC00E900F60005019D
:100DC60015012501370149015D01710187019F0167
:100DD60007000100050001000300010005000100F5
:100DE60007000100070001000700000005000100E0
:100DF6000500010005000000070001000A000100CF
:100E06000A000000463A2530336420443A25303340
:060E1600642025640000C9
:00000001FF
