:100000000C942A000C9447000C9447000C94470071
:100010000C9447000C9447000C9447000C94470044
:100020000C9447000C9447000C9447000C94470034
:100030000C9447000C9447000C9447000C94470024
:100040000C9447000C9447000C9447000C94470014
:100050000C94470011241FBECFE5D8E0DEBFCDBF12
:1000600010E0A0E6B0E0E6E2FEE002C005900D92EE
:10007000A43DB107D9F720E0A4EDB0E001C01D9286
:10008000AE3EB207E1F70E9444030C9411070C94B2
:1000900000009C0123703327232B59F464E670E0A1
:1000A0000E94FF03892B39F46370772781E0672B67
:1000B00019F080E0089581E008958FE081BD0895F2
:1000C0009C0183E083BF83E808C082BF98B791603A
:1000D00098BFA89508B600FEFDCF21503109A8F7BA
:1000E00013BE0895662311F0C09A01C0C098C1984C
:1000F00082BB8FEF81BBC29A000000000000C29853
:100100000895C098C19A11BA90B3C29A0000000035
:10011000000011BA90B3C29899239CF30E94720018
:100120000895B89AB99ABA9A80E190E00E94600066
:1001300060E080E30E94720085E090E00E94600031
:1001400060E080E30E94720081E090E00E94600025
:1001500060E08CE30E94810060E08CE00E948100FE
:1001600060E086E00E94810060E081E00E94810002
:10017000089560E081E00E9481000895CF93C62F2A
:1001800098E2899FC00D112460E082E00E94810006
:10019000CC2331F060E084E10E948100C150D1F7AE
:1001A000CF910895CF93DF93EC012196FC018081DC
:1001B000882331F061E00E94810089918111FACF9A
:1001C000DF91CF9108958091EC009091ED00019620
:1001D0008A3091052CF49093ED008093EC0009C0D7
:1001E000E0EEF0E01586148682859385019693876C
:1001F00082878091EA009091EB00CC974CF0E0EE82
:10020000F0E013861286808591850196918780871C
:100210008091E8009091E900CC974CF0E0EEF0E09E
:1002200011861086868197810196978386838091B7
:10023000E6009091E70048974CF0E0EEF0E017827E
:10024000168284819581019695838483A0EEB0E027
:100250001296ED91FC911397EE0FFF1FE05AFF4F9E
:1002600014962D913C91159780819181281739071B
:100270004CF18091E0009091E1000E944900892BAF
:10028000C1F08091E2009091E300019791F4809198
:10029000E4009091E5008B31910519F14D970CF137
:1002A000E0EEF0E01582148282E090E09383828396
:1002B0000895E0EEF0E01582148282819381019628
:1002C000938382838091E2009091E3000C974CF03D
:1002D000E0EEF0E013821282808191810196918399
:1002E00080830895CF93DF9314BA15BA44B321E005
:1002F00030E0F90102C0EE0FFF1F8A95E2F7CF014F
:10030000842B84BB85B3EB0124960C2E02C0220FF4
:10031000331F0A94E2F7282B25BB81E090E00E946E
:10032000600023B330E002C035952795CA95E2F707
:1003300081E090E020FF02C080E090E0DF91CF916B
:1003400008950F931F93CF93DF9300E010E018C040
:10035000BE01C8010E947201009749F0000F111FF1
:10036000000F111FC00FD11FCE0101960CC02196A6
:10037000C430D10569F70F5F1F4F0430110519F024
:10038000C0E0D0E0E5CFDF91CF911F910F910895AC
:100390000F931F93CF93DF93CDB7DEB761970FB65F
:1003A000F894DEBF0FBECDBF0E94B90060E080E0D0
:1003B0000E94BE008091DE009091DF00892B21F425
:1003C0008AE890E090E005C089E890E09091DC0038
:1003D0009F5C1F929F931F928F93E0EEF0E08181CC
:1003E0008F9380818F938481958101969F938F93C2
:1003F0008281938101969F938F938BE890E09F93E6
:100400008F938E010F5F1F4F1F930F930E9427043E
:10041000C8010E94D20060E081E00E94BE000FB6D9
:10042000F894DEBF0FBECDBF8091DA009091DB0063
:10043000892B11F18091D7008F938091D6008F93F3
:10044000E0EEF0E083858F9382858F9381858F9393
:1004500080858F9387818F9386818F9381EA90E047
:100460009F938F931F930F930E9427040FB6F894C6
:10047000DEBF0FBECDBF33C08091E6009091E70094
:100480008C3091051CF026EB30E002C029EB30E007
:100490003091D7003F933091D6003F931F922F9316
:1004A000E0EEF0E023852F9322852F9321852F9373
:1004B00020852F936CE070E00E94FF039F938F9341
:1004C0008CEB90E09F938F93CE0101969F938F9337
:1004D0000E9427040FB6F894DEBF0FBECDBFCE0139
:1004E00001960E94D20061960FB6F894DEBF0FBE4F
:1004F000CDBFDF91CF911F910F9108952091DC0026
:100500003091DD002115310571F42091E200309128
:10051000E300820F931F99230CF455C09093E300DE
:100520008093E20008952130310571F42091E400B8
:100530003091E500820F931F99230CF444C09093EF
:10054000E5008093E40008952230310569F420919C
:10055000E0003091E100820F931F9923A4F1909362
:10056000E1008093E00008952330310569F4209183
:10057000E6003091E700820F931F992324F19093B6
:10058000E7008093E60008952430310569F4209156
:10059000E8003091E900820F931F9923A4F0909313
:1005A000E9008093E80008952530310561F4209139
:1005B000EA003091EB00820F931F992324F090936F
:1005C000EB008093EA0008958091DC009091DD00BB
:1005D000009771F48091D6009091D70018161906F3
:1005E0000CF044C001979093E3008093E2000895DB
:1005F0008130910569F48091D6009091D70018164A
:100600001906A4F501979093E5008093E4000895FE
:100610008230910549F48091D6009091D700909353
:10062000E1008093E00008958330910549F48091C2
:10063000D6009091D7009093E7008093E60008954C
:100640008430910549F48091D6009091D700909321
:10065000E9008093E8000895059741F48091D60061
:100660009091D7009093EB008093EA000895109248
:10067000D7001092D6001092D5001092D40010929C
:10068000D9001092D80008950E945D000E94910048
:10069000C1E0D0E00E94A101019708F4A7C0FC01CD
:1006A000E858FF4F2081233491F48091DA00909133
:1006B000DB00019681709078992324F401978E6F66
:1006C0009F6F01969093DB008093DA008FC02434F3
:1006D000F1F48091DE009091DF00019681709078B6
:1006E000992324F401978E6F9F6F01969093DF00FA
:1006F0008093DE001092D9001092D8001092D7009B
:100700001092D6001092D5001092D4006FC0809144
:10071000DE009091DF00892B09F468C0233271F468
:100720008091DC009091DD00853091050CF05EC079
:1007300001969093DD008093DC0058C02A3271F45A
:100740008091DC009091DD00181619060CF04EC067
:1007500001979093DD008093DC0048C0213421F4A0
:10076000CE010E947E0242C0223429F48FEF9FEF17
:100770000E947E023BC0D093D900C093D800609104
:10078000D4007091D5006F5F7F4F7093D500609358
:10079000D4004091D6005091D700CA01880F991F0C
:1007A000440F551F440F551F440F551F840F951FAD
:1007B00030E020533109820F931F9093D70080932C
:1007C000D6008091DC009091DD00029741F4643006
:1007D000710561F40E94E4020E94370307C0623091
:1007E000710521F40E94E4020E9437030E94C801AF
:1007F0000E94E30084E690E00E9460004BCF97FBEC
:10080000072E16F4009407D077FD09D00E94130438
:1008100007FC05D03EF4909581959F4F0895709503
:1008200061957F4F0895AA1BBB1B51E107C0AA1F0A
:10083000BB1FA617B70710F0A61BB70B881F991F81
:100840005A95A9F780959095BC01CD010895AEE029
:10085000B0E0EDE2F4E00C94E8060D891E8986E034
:100860008C831A8309838FEF9FE79E838D83AE016C
:10087000475E5F4F6F89788DCE0101960E944904D3
:10088000EF81F885E00FF11F10822E96E4E00C94C2
:100890000407ABE0B0E0EFE4F4E00C94DA066C019E
:1008A0007B018A01FC0117821682838181FFCCC102
:1008B000CE0101963C01F6019381F70193FD8591EC
:1008C00093FF81917F01882309F4BAC1853239F4FD
:1008D00093FD859193FF81917F01853229F4B601C3
:1008E00090E00E944006E7CF912C212C312CFFE1B3
:1008F000F315D8F08B3279F038F4803279F0833206
:10090000A1F4232D20611DC08D3261F0803369F484
:10091000232D216016C0832D8260382EE32DE460E4
:100920003E2E2AC0F32DF8601DC037FC2DC020EDEF
:10093000280F2A3040F08E32B9F436FC81C1232DC5
:100940002064322E19C036FE06C08AE0989E200D23
:100950001124922E11C0EAE02E9E200D1124222E89
:10096000F32DF0623F2E08C08C3621F4832D806871
:10097000382E02C0883641F4F70193FD859193FF2C
:1009800081917F018111B3CF982F9F7D9554933032
:1009900028F40C5F1F4F9FE399830DC0833631F01D
:1009A000833771F0833509F059C021C0F801808187
:1009B00089830E5F1F4F88248394912C530113C0A9
:1009C0002801F2E04F0E511CF801A080B18036FEE4
:1009D00003C0692D70E002C06FEF7FEFC5010E9478
:1009E00035064C018201F32DFF773F2E16C02801FA
:1009F00022E0420E511CF801A080B18036FE03C0F7
:100A0000692D70E002C06FEF7FEFC5010E942A06DA
:100A10004C01F32DF0683F2E820133FC1BC0822D68
:100A200090E088169906B0F4B60180E290E00E944A
:100A300040062A94F4CFF50137FC859137FE819169
:100A40005F01B60190E00E94400621102A9421E047
:100A5000821A91088114910471F7E8C0843611F06C
:100A6000893641F5F80137FE07C0608171818281C6
:100A700093810C5F1F4F08C060817181072E000CAD
:100A8000880B990B0E5F1F4FF32DFF763F2E97FFBC
:100A900009C090958095709561957F4F8F4F9F4FBE
:100AA000F0683F2E2AE030E0A3010E947C06882EE9
:100AB000861845C0853731F4232D2F7EB22E2AE0CB
:100AC00030E025C0932D997FB92E8F36C1F018F4F0
:100AD000883579F0B5C0803719F0883721F0B0C07B
:100AE000E92FE061BE2EB4FE0DC0FB2DF460BF2ED9
:100AF00009C034FE0AC0292F2660B22E06C028E0A5
:100B000030E005C020E130E002C020E132E0F80131
:100B1000B7FE07C060817181828193810C5F1F4F96
:100B200006C06081718180E090E00E5F1F4FA301DD
:100B30000E947C06882E8618FB2DFF773F2E36FEFE
:100B40000DC0232D2E7FA22E891458F434FE0BC025
:100B500032FC09C0832D8E7EA82E05C0B82CA32C94
:100B600003C0B82C01C0B92CA4FE0FC0FE01E80DD3
:100B7000F11D8081803321F49A2D997EA92E09C020
:100B8000A2FE06C0B394B39404C08A2D867809F0FF
:100B9000B394A3FC11C0A0FE06C0B21488F4280CC4
:100BA000922C9B180EC0B21460F4B60180E290E063
:100BB0000E944006B394F7CFB21418F42B1802C069
:100BC000982C212CA4FE10C0B60180E390E00E9476
:100BD0004006A2FE17C0A1FC03C088E790E002C057
:100BE00088E590E0B6010CC08A2D867859F0A1FE08
:100BF00002C08BE201C080E2A7FC8DE2B60190E06A
:100C00000E944006891438F4B60180E390E00E9407
:100C100040069A94F7CF8A94F301E80DF11D808184
:100C2000B60190E00E9440068110F5CF222009F421
:100C300042CEB60180E290E00E9440062A94F6CFB0
:100C4000F6018681978102C08FEF9FEF2B96E2E13C
:100C50000C94F606FC010590615070400110D8F725
:100C6000809590958E0F9F1F0895FC0161507040F4
:100C700001900110D8F7809590958E0F9F1F0895D1
:100C80000F931F93CF93DF93FB01238121FD03C0BB
:100C90008FEF9FEF2CC022FF16C046815781248121
:100CA00035814217530744F4A081B1819D012F5F24
:100CB0003F4F318320838C93268137812F5F3F4FB5
:100CC0003783268314C08B01EC01FB010084F1857E
:100CD000E02D0995892BE1F6D80116968D919C910E
:100CE0001797019617969C938E931697CE01DF91D6
:100CF000CF911F910F910895FA01AA27283051F141
:100D0000203181F1E8946F936E7F6E5F7F4F8F4F3C
:100D10009F4FAF4FB1E03ED0B4E03CD0670F781F9B
:100D2000891F9A1FA11D680F791F8A1F911DA11D80
:100D30006A0F711D811D911DA11D20D009F46894B9
:100D40003F912AE0269F11243019305D3193DEF661
:100D5000CF010895462F4770405D4193B3E00FD017
:100D6000C9F7F6CF462F4F70405D4A3318F0495D02
:100D700031FD4052419302D0A9F7EACFB4E0A695E5
:100D80009795879577956795BA95C9F70097610507
:100D9000710508959B01AC010A2E0694579547955D
:100DA00037952795BA95C9F7620F731F841F951F52
:100DB000A01D08952F923F924F925F926F927F9263
:100DC0008F929F92AF92BF92CF92DF92EF92FF925B
:100DD0000F931F93CF93DF93CDB7DEB7CA1BDB0B07
:100DE0000FB6F894DEBF0FBECDBF09942A883988AC
:100DF00048885F846E847D848C849B84AA84B984B3
:100E0000C884DF80EE80FD800C811B81AA81B981BE
:100E1000CE0FD11D0FB6F894DEBF0FBECDBFED01D2
:060E20000895F894FFCFD5
:100E26001F001C001F001E001F001E001F001F00C9
:100E36001E001F001E001F0031323341343536427A
:100E4600373839432A302344004500253032642F91
:100E5600253032642F253034642020257320256305
:100E660000253032643A253032643A253032642027
:100E7600202530346400504D00414D002530326449
:100E86003A253032643A25303264202573202530E5
:040E960034640000C0
:00000001FF
