:100000000C942A000C9434000C9434000C943400AA
:100010000C9434000C9434000C9434000C94340090
:100020000C9434000C9434000C9434000C94340080
:100030000C9434000C9434000C9434000C94340070
:100040000C9434000C9434000C9434000C94340060
:100050000C94340011241FBECFE5D8E0DEBFCDBF25
:100060000E94BE000C94C9000C9400009C0183E027
:1000700083BF83E808C082BF98B7916098BFA895F6
:1000800008B600FEFDCF21503109A8F713BE089530
:10009000CF93DF9314BA15BA44B321E030E0F901ED
:1000A00002C0EE0FFF1F8A95E2F7CF01842B84BBBD
:1000B00085B3EB0124960C2E02C0220F331F0A9445
:1000C000E2F7282B25BB81E090E00E94360023B3A5
:1000D00030E002C035952795CA95E2F781E090E0BF
:1000E00020FF02C080E090E0DF91CF9108950F9350
:1000F0001F93CF93DF9300E010E018C0BE01C8014A
:100100000E944800009749F0000F111F000F111FB7
:10011000C00FD11FCE0101960CC02196C430D1056D
:1001200069F70F5F1F4F0430110519F0C0E0D0E0F0
:10013000E5CFDF91CF911F910F910895C09A84EF81
:1001400091E00E943600C09884EF91E00E94360052
:1001500008950F931F93CF93DF93181619064CF44D
:100160008C01C0E0D0E00E949E0021960C171D0774
:10017000D1F7DF91CF911F910F91089581E087BB57
:100180000E9477000E94A90088EE93E00E9436004A
:06019000F7CFF894FFCF49
:00000001FF
