:100000000C942A000C9447000C9447000C94470071
:100010000C9447000C9447000C9447000C94470044
:100020000C9447000C9447000C9447000C94470034
:100030000C9447000C9447000C9447000C94470024
:100040000C9447000C9447000C9447000C94470014
:100050000C94470011241FBECFE5D8E0DEBFCDBF12
:1000600010E0A0E6B0E0ECE3FCE002C005900D92E9
:10007000A83CB107D9F720E0A8ECB0E001C01D9280
:10008000AC3DB207E1F70E949B020C941C060C9455
:1000900000009C0123703327232B59F464E670E0A1
:1000A0000E940A03892B39F46370772781E0672B5C
:1000B00019F080E0089581E008958FE081BD0895F2
:1000C0009C0183E083BF83E808C082BF98B791603A
:1000D00098BFA89508B600FEFDCF21503109A8F7BA
:1000E00013BE0895662311F0C09A01C0C098C1984C
:1000F00082BB8FEF81BBC29A000000000000C29853
:100100000895C098C19A11BA90B3C29A0000000035
:10011000000011BA90B3C29899239CF30E94720018
:100120000895B89AB99ABA9A80E190E00E94600066
:1001300060E080E30E94720085E090E00E94600031
:1001400060E080E30E94720081E090E00E94600025
:1001500060E08CE30E94810060E08CE00E948100FE
:1001600060E086E00E94810060E081E00E94810002
:10017000089560E081E00E9481000895CF93C62F2A
:1001800098E2899FC00D112460E082E00E94810006
:10019000CC2331F060E084E10E948100C150D1F7AE
:1001A000CF910895CF93DF93EC012196FC018081DC
:1001B000882331F061E00E94810089918111FACF9A
:1001C000DF91CF9108958091DA009091DB00019644
:1001D0008A3091052CF49093DB008093DA00089527
:1001E000EEECF0E0158614868285938501968C33BB
:1001F00091052CF49093D9008093D8000895EEECEB
:10020000F0E0138612868085918501968C339105E6
:100210002CF49093D7008093D6000895EEECF0E094
:1002200011861086868197810196883191052CF47C
:100230009093D5008093D4000895EEECF0E01782FF
:100240001682848195810196958384830280F3814F
:10025000E02DEE0FFF1FE05AFF4F20813181821702
:10026000930734F18091CE009091CF000E94490015
:10027000892B31F08091D0009091D1000197C1F08D
:10028000EEECF0E0158214828281938101968C302D
:1002900091052CF49093D1008093D0000895EEEC5A
:1002A000F0E0138212828081918101969183808394
:1002B0000895CF93DF9314BA15BA44B321E030E028
:1002C000F90102C0EE0FFF1F8A95E2F7CF01842BE0
:1002D00084BB85B3EB0124960C2E02C0220F331F82
:1002E0000A94E2F7282B25BB81E090E00E94600091
:1002F00023B330E002C035952795CA95E2F781E037
:1003000090E020FF02C080E090E0DF91CF9108955F
:100310000F931F93CF93DF9300E010E018C0BE014E
:10032000C8010E945901009749F0000F111F000FEA
:10033000111FC00FD11FCE0101960CC02196C430F1
:10034000D10569F70F5F1F4F0430110519F0C0E0A8
:10035000D0E0E5CFDF91CF911F910F9108950F93DA
:100360001F93CF93DF93CDB7DEB761970FB6F894A5
:10037000DEBF0FBECDBF0E94B90060E080E00E94EA
:10038000BE008091CC009091CD00892B21F48AE8A9
:1003900090E090E005C089E890E09091CA009F5CF1
:1003A0001F929F931F928F93EEECF0E081818F93C9
:1003B00080818F9385818F9384818F9383818F93A5
:1003C00082818F938BE890E09F938F938E010F5FD4
:1003D0001F4F1F930F930E943203C8010E94D20047
:1003E00060E081E00E94BE000FB6F894DEBF0FBE51
:1003F000CDBF8091C8009091C900892BE1F0EEEC4F
:10040000F0E083858F9382858F9381858F9380859C
:100410008F9387818F9386818F9381EA90E09F935A
:100420008F931F930F930E9432030FB6F894DEBF91
:100430000FBECDBF2DC08091D4009091D5008C30DF
:1004400091051CF020EB30E002C023EB30E01F925E
:100450002F93EEECF0E023852F9322852F932185B7
:100460002F9320852F936CE070E00E940A039F93E6
:100470008F9386EB90E09F938F93CE0101969F938D
:100480008F930E9432030FB6F894DEBF0FBECDBF2C
:10049000CE0101960E94D20061960FB6F894DEBF9D
:1004A0000FBECDBFDF91CF911F910F910895809125
:1004B000CA009091CB00009741F4EEECF0E082810D
:1004C000938101969383828308958130910541F44D
:1004D000EEECF0E084819581019695838483089504
:1004E0008230910541F4EEECF0E08081918101963B
:1004F0009183808308958330910541F4EEECF0E020
:10050000868197810196978386830895843091052B
:1005100041F4EEECF0E0808591850196918780872B
:100520000895059739F4EEECF0E082859385019605
:100530009387828708950E945D000E9491000E9427
:10054000880189589F4FFC018081833491F4809108
:10055000C8009091C900019681709078992324F485
:1005600001978E6F9F6F01969093C9008093C8008A
:1005700048C0843491F48091CC009091CD000196D4
:1005800081709078992324F401978E6F9F6F019664
:100590009093CD008093CC0034C0833299F4809145
:1005A000CC009091CD00892B61F18091CA0090918F
:1005B000CB00853091052CF501969093CB0080936C
:1005C000CA001FC08A3299F48091CC009091CD006E
:1005D000892BB9F08091CA009091CB0018161906AA
:1005E00084F401979093CB008093CA000AC08134B1
:1005F00041F48091CC009091CD00892B11F00E94A4
:1006000057020E94AF010E94E30084E690E00E943E
:10061000600095CF97FB072E16F4009407D077FD66
:1006200009D00E941E0307FC05D03EF490958195E9
:100630009F4F0895709561957F4F0895AA1BBB1B2E
:1006400051E107C0AA1FBB1FA617B70710F0A61BD2
:10065000B70B881F991F5A95A9F780959095BC01F3
:10066000CD010895AEE0B0E0E8E3F3E00C94F305CB
:100670000D891E8986E08C831A8309838FEF9FE79B
:100680009E838D83AE01475E5F4F6F89788DCE016B
:1006900001960E945403EF81F885E00FF11F10824C
:1006A0002E96E4E00C940F06ABE0B0E0EAE5F3E050
:1006B0000C94E5056C017B018A01FC01178216820E
:1006C000838181FFCCC1CE0101963C01F60193816B
:1006D000F70193FD859193FF81917F01882309F4B0
:1006E000BAC1853239F493FD859193FF81917F01E1
:1006F000853229F4B60190E00E944B05E7CF912C9A
:10070000212C312CFFE1F315D8F08B3279F038F43D
:10071000803279F08332A1F4232D20611DC08D3207
:1007200061F0803369F4232D216016C0832D82602F
:10073000382EE32DE4603E2E2AC0F32DF8601DC054
:1007400037FC2DC020ED280F2A3040F08E32B9F44E
:1007500036FC81C1232D2064322E19C036FE06C01E
:100760008AE0989E200D1124922E11C0EAE02E9E60
:10077000200D1124222EF32DF0623F2E08C08C365E
:1007800021F4832D8068382E02C0883641F4F701A9
:1007900093FD859193FF81917F018111B3CF982FB4
:1007A0009F7D9554933028F40C5F1F4F9FE39983EE
:1007B0000DC0833631F0833771F0833509F059C0AD
:1007C00021C0F801808189830E5F1F4F88248394A4
:1007D000912C530113C02801F2E04F0E511CF80177
:1007E000A080B18036FE03C0692D70E002C06FEFBB
:1007F0007FEFC5010E9440054C018201F32DFF7778
:100800003F2E16C0280122E0420E511CF801A080A4
:10081000B18036FE03C0692D70E002C06FEF7FEF3C
:10082000C5010E9435054C01F32DF0683F2E820171
:1008300033FC1BC0822D90E088169906B0F4B601F7
:1008400080E290E00E944B052A94F4CFF50137FC3A
:10085000859137FE81915F01B60190E00E944B05C2
:1008600021102A9421E0821A91088114910471F7D1
:10087000E8C0843611F0893641F5F80137FE07C02B
:1008800060817181828193810C5F1F4F08C06081FC
:100890007181072E000C880B990B0E5F1F4FF32DF3
:1008A000FF763F2E97FF09C09095809570956195D2
:1008B0007F4F8F4F9F4FF0683F2E2AE030E0A3011B
:1008C0000E948705882E861845C0853731F4232D70
:1008D0002F7EB22E2AE030E025C0932D997FB92ECD
:1008E0008F36C1F018F4883579F0B5C0803719F02B
:1008F000883721F0B0C0E92FE061BE2EB4FE0DC0F4
:10090000FB2DF460BF2E09C034FE0AC0292F2660DB
:10091000B22E06C028E030E005C020E130E002C081
:1009200020E132E0F801B7FE07C060817181828169
:1009300093810C5F1F4F06C06081718180E090E061
:100940000E5F1F4FA3010E948705882E8618FB2D7E
:10095000FF773F2E36FE0DC0232D2E7FA22E891449
:1009600058F434FE0BC032FC09C0832D8E7EA82EB5
:1009700005C0B82CA32C03C0B82C01C0B92CA4FE10
:100980000FC0FE01E80DF11D8081803321F49A2D06
:10099000997EA92E09C0A2FE06C0B394B39404C0E8
:1009A0008A2D867809F0B394A3FC11C0A0FE06C07E
:1009B000B21488F4280C922C9B180EC0B21460F468
:1009C000B60180E290E00E944B05B394F7CFB214D9
:1009D00018F42B1802C0982C212CA4FE10C0B601CC
:1009E00080E390E00E944B05A2FE17C0A1FC03C06B
:1009F00088E790E002C088E590E0B6010CC08A2D3F
:100A0000867859F0A1FE02C08BE201C080E2A7FC0B
:100A10008DE2B60190E00E944B05891438F4B601CE
:100A200080E390E00E944B059A94F7CF8A94F301FB
:100A3000E80DF11D8081B60190E00E944B05811008
:100A4000F5CF222009F442CEB60180E290E00E9468
:100A50004B052A94F6CFF6018681978102C08FEF6D
:100A60009FEF2B96E2E10C940106FC01059061508A
:100A700070400110D8F7809590958E0F9F1F0895B4
:100A8000FC016150704001900110D8F7809590955D
:100A90008E0F9F1F08950F931F93CF93DF93FB013A
:100AA000238121FD03C08FEF9FEF2CC022FF16C0D2
:100AB00046815781248135814217530744F4A08130
:100AC000B1819D012F5F3F4F318320838C9326811D
:100AD00037812F5F3F4F3783268314C08B01EC0192
:100AE000FB010084F185E02D0995892BE1F6D80101
:100AF00016968D919C911797019617969C938E93BD
:100B00001697CE01DF91CF911F910F910895FA01B1
:100B1000AA27283051F1203181F1E8946F936E7F3C
:100B20006E5F7F4F8F4F9F4FAF4FB1E03ED0B4E02D
:100B30003CD0670F781F891F9A1FA11D680F791F6E
:100B40008A1F911DA11D6A0F711D811D911DA11D7F
:100B500020D009F468943F912AE0269F112430198F
:100B6000305D3193DEF6CF010895462F4770405D2A
:100B70004193B3E00FD0C9F7F6CF462F4F70405DD9
:100B80004A3318F0495D31FD4052419302D0A9F734
:100B9000EACFB4E0A6959795879577956795BA952E
:100BA000C9F700976105710508959B01AC010A2EF4
:100BB00006945795479537952795BA95C9F7620FCB
:100BC000731F841F951FA01D08952F923F924F926F
:100BD0005F926F927F928F929F92AF92BF92CF92CD
:100BE000DF92EF92FF920F931F93CF93DF93CDB7D6
:100BF000DEB7CA1BDB0B0FB6F894DEBF0FBECDBF4E
:100C000009942A88398848885F846E847D848C841E
:100C10009B84AA84B984C884DF80EE80FD800C8127
:100C20001B81AA81B981CE0FD11D0FB6F894DEBF0A
:0C0C30000FBECDBFED010895F894FFCF7A
:100C3C001F001C001F001E001F001E001F001F00B5
:100C4C001E001F001E001F00313233413435364266
:100C5C00373839432A302344004500253032642F7D
:100C6C00253032642F2530346420202573202563F1
:100C7C0000253032643A253032643A253032640033
:100C8C00504D00414D00253032643A253032643AE3
:080C9C002530326420257300AD
:00000001FF
