:100000000C942A000C9434000C9434000C943400AA
:100010000C9434000C9434000C9434000C94340090
:100020000C9434000C9434000C9434000C94340080
:100030000C9434000C9434000C9434000C94340070
:100040000C9434000C9434000C9434000C94340060
:100050000C94340011241FBECFE5D8E0DEBFCDBF25
:100060000E945D000C9468000C940000CF93DF9315
:1000700000D0CDB7DEB71A82198289819A81092E04
:10008000000CAA0BBB0B8035934CA105B10580F485
:1000900089819A8101969A83898389819A81092E1F
:1000A000000CAA0BBB0B8035934CA105B10580F366
:1000B0000F900F90DF91CF91089581E087BBB199A8
:1000C000FECFC09A0E943600C0980E943600F7CF3B
:0400D000F894FFCFD2
:00000001FF
