:100000000C942A000C9434000C9434000C943400AA
:100010000C9434000C9434000C9434000C94340090
:100020000C9434000C9434000C9434000C94340080
:100030000C9434000C9434000C9434000C94340070
:100040000C9434000C9434000C9434000C94340060
:100050000C94340011241FBECFE5D8E0DEBFCDBF25
:100060000E9447000C9456000C9400009C0183E011
:1000700083BF83E807C082BF98B7916098BF08B676
:1000800000FEFDCF21503109B0F713BE089581E085
:1000900087BBB199FECFC09A84EF91E00E943600F1
:1000A000C09884EF91E00E943600F3CFF894FFCF20
:00000001FF
