:100000000C942A000C9447000C9447000C94470071
:100010000C9447000C9447000C9447000C94470044
:100020000C9447000C9447000C9447000C94470034
:100030000C9447000C9447000C9447000C94470024
:100040000C9447000C9447000C9447000C94470014
:100050000C94470011241FBECFE5D8E0DEBFCDBF12
:1000600010E0A0E6B0E0E4E5FCE002C005900D92EF
:10007000A23BB107D9F720E0A2EBB0E001C01D928E
:10008000AE3BB207E1F70E949F010C9428060C9446
:1000900000008FE081BD08959C0183E083BF88EB61
:1000A00008C082BF98B7916098BFA89508B600FEB7
:1000B000FDCF21503109A8F713BE0895662311F032
:1000C000C09A01C0C098C19882BB8FEF81BBC29A11
:1000D000000000000000C2980895C098C19A11BAAB
:1000E00090B3C29A00000000000011BA90B3C29809
:1000F00099239CF30E945E000895B89AB99ABA9A1F
:1001000080E190E00E944C0060E080E30E945E008D
:1001100085E090E00E944C0060E080E30E945E0079
:1001200081E090E00E944C0060E08CE30E946D0052
:1001300060E08CE00E946D0060E086E00E946D004F
:1001400060E081E00E946D00089560E081E00E941F
:100150006D000895CF93C62F98E2899FC00D11249A
:1001600060E082E00E946D00CC2331F060E084E129
:100170000E946D00C150D1F7CF910895CF93DF93C6
:10018000EC012196FC018081882331F061E00E941E
:100190006D0089918111FACFDF91CF910895CF93AE
:1001A000DF9314BA15BA44B321E030E0F90102C07C
:1001B000EE0FFF1F8A95E2F7CF01842B84BB85B336
:1001C000EB0124960C2E02C0220F331F0A94E2F793
:1001D000282B25BB81E090E00E944C0023B330E047
:1001E00002C035952795CA95E2F781E090E020FF9F
:1001F00002C080E090E0DF91CF9108950F931F93AC
:10020000CF93DF9300E010E018C0BE01C8010E9448
:10021000CF00009749F0000F111F000F111FC00FF2
:10022000D11FCE0101960CC02196C430D10569F7CB
:100230000F5F1F4F0430110519F0C0E0D0E0E5CF8B
:10024000DF91CF911F910F91089580E487B987E0E6
:1002500086B9089587B187B986B1806C86B9349B19
:10026000FECF349A84B195B10895CF93DF93CDB783
:10027000DEB7A0970FB6F894DEBF0FBECDBF80915A
:10028000BC009091BD00892B99F480E1E2E8F0E098
:10029000DE01119601900D928A95E1F780E1E2E985
:1002A000F0E0DE01519601900D928A95E1F730C0A1
:1002B00080E1E2EAF0E0DE01119601900D928A956C
:1002C000E1F7809174008F93809173008F938091F8
:1002D00072008F93809171008F938091B9008F93FA
:1002E0008091B8008F938091B7008F938091B60072
:1002F0008F9385E790E09F938F93CE0141969F93D4
:100300008F930E943E030FB6F894DEBF0FBECDBFA1
:100310000E94A500CE0101960E94BE0060E081E02F
:100320000E94AA00CE0141960E94BE00A0960FB680
:10033000F894DEBF0FBECDBFDF91CF9108950E942C
:1003400049000E947D000E942501C1E0D0E00E948A
:1003500035010E942A01BC0180E090E00E948702E2
:100360006B017C019B01AC016091B2007091B30004
:100370008091B4009091B5000E9416026093B20083
:100380007093B3008093B4009093B5002091B600B1
:100390003091B7004091B8005091B900C701B60143
:1003A0000E943903181644F4C092B600D092B700E8
:1003B000E092B800F092B900209171003091720083
:1003C0004091730050917400C701B6010E948202EF
:1003D000882344F4C0927100D0927200E0927300BE
:1003E000F09274008091BA009091BB0001969093B6
:1003F000BB008093BA000E94FE00019788F0FC01C8
:10040000E05AFF4F8081813329F4D093BD00C0931F
:10041000BC0006C0823321F41092BD001092BC00D3
:1004200084EF91E00E944C0092CF5058BB27AA273E
:100430000E942D020C94FF020E94F10238F00E94EB
:10044000F80220F039F49F3F19F426F40C94EE02E0
:100450000EF4E095E7FB0C94E802E92F0E941003EC
:1004600058F3BA17620773078407950720F079F4E9
:10047000A6F50C9432030EF4E0950B2EBA2FA02DA6
:100480000B01B90190010C01CA01A0011124FF2741
:10049000591B99F0593F50F4503E68F11A16F0403C
:1004A000A22F232F342F4427585FF3CF469537953B
:1004B0002795A795F0405395C9F77EF41F16BA0B00
:1004C000620B730B840BBAF09150A1F0FF0FBB1FAE
:1004D000661F771F881FC2F70EC0BA0F621F731FF7
:1004E000841F48F4879577956795B795F7959E3F54
:1004F00008F0B0CF9395880F08F09927EE0F9795E5
:10050000879508950E94C40208F481E00895E89454
:1005100009C097FB3EF490958095709561957F4F4B
:100520008F4F9F4F9923A9F0F92F96E9BB279395F9
:10053000F695879577956795B795F111F8CFFAF409
:10054000BB0F11F460FF1BC06F5F7F4F8F4F9F4F3A
:1005500016C0882311F096E911C0772321F09EE898
:10056000872F762F05C0662371F096E8862F70E0FE
:1005700060E02AF09A95660F771F881FDAF7880FD8
:100580009695879597F90895990F0008550FAA0B2E
:10059000E0E8FEEF16161706E807F907C0F0121696
:1005A0001306E407F50798F0621B730B840B950B99
:1005B00039F40A2661F0232B242B252B21F40895EE
:1005C0000A2609F4A140A6958FEF811D811D08958B
:1005D00097F99F6780E870E060E008959FEF80ECF6
:1005E000089500240A941616170618060906089599
:1005F00000240A9412161306140605060895092EFF
:100600000394000C11F4882352F0BB0F40F4BF2B6D
:1006100011F460FF04C06F5F7F4F8F4F9F4F0895AD
:1006200057FD9058440F551F59F05F3F71F04795A3
:10063000880F97FB991F61F09F3F79F08795089588
:10064000121613061406551FF2CF4695F1DF08C0A7
:10065000161617061806991FF1CF869571056105C4
:1006600008940895E894BB2766277727CB0197F96C
:1006700008950E94C40208F48FEF0895AEE0B0E040
:10068000E4E4F3E00C94FF050D891E8986E08C8379
:100690001A8309838FEF9FE79E838D83AE01475EA8
:1006A0005F4F6F89788DCE0101960E946003EF81C4
:1006B000F885E00FF11F10822E96E4E00C941B06E3
:1006C000ABE0B0E0E6E6F3E00C94F1056C017B01F1
:1006D0008A01FC0117821682838181FFCCC1CE0181
:1006E00001963C01F6019381F70193FD859193FFFB
:1006F00081917F01882309F4BAC1853239F493FDD1
:10070000859193FF81917F01853229F4B60190E0B4
:100710000E945705E7CF912C212C312CFFE1F315D6
:10072000D8F08B3279F038F4803279F08332A1F44A
:10073000232D20611DC08D3261F0803369F4232D9B
:10074000216016C0832D8260382EE32DE4603E2E9A
:100750002AC0F32DF8601DC037FC2DC020ED280FF6
:100760002A3040F08E32B9F436FC81C1232D20644A
:10077000322E19C036FE06C08AE0989E200D112444
:10078000922E11C0EAE02E9E200D1124222EF32D70
:10079000F0623F2E08C08C3621F4832D8068382EFD
:1007A00002C0883641F4F70193FD859193FF819152
:1007B0007F018111B3CF982F9F7D9554933028F4FA
:1007C0000C5F1F4F9FE399830DC0833631F0833751
:1007D00071F0833509F059C021C0F8018081898307
:1007E0000E5F1F4F88248394912C530113C028015E
:1007F000F2E04F0E511CF801A080B18036FE03C01C
:10080000692D70E002C06FEF7FEFC5010E944C05BB
:100810004C018201F32DFF773F2E16C0280122E004
:10082000420E511CF801A080B18036FE03C0692D34
:1008300070E002C06FEF7FEFC5010E9441054C01DF
:10084000F32DF0683F2E820133FC1BC0822D90E017
:1008500088169906B0F4B60180E290E00E94570530
:100860002A94F4CFF50137FC859137FE81915F0121
:10087000B60190E00E94570521102A9421E0821AC7
:1008800091088114910471F7E8C0843611F089361B
:1008900041F5F80137FE07C0608171818281938143
:1008A0000C5F1F4F08C060817181072E000C880B00
:1008B000990B0E5F1F4FF32DFF763F2E97FF09C058
:1008C00090958095709561957F4F8F4F9F4FF06801
:1008D0003F2E2AE030E0A3010E949305882E86185F
:1008E00045C0853731F4232D2F7EB22E2AE030E02B
:1008F00025C0932D997FB92E8F36C1F018F4883515
:1009000079F0B5C0803719F0883721F0B0C0E92FF1
:10091000E061BE2EB4FE0DC0FB2DF460BF2E09C0F9
:1009200034FE0AC0292F2660B22E06C028E030E02F
:1009300005C020E130E002C020E132E0F801B7FE5E
:1009400007C060817181828193810C5F1F4F06C057
:100950006081718180E090E00E5F1F4FA3010E94D3
:100960009305882E8618FB2DFF773F2E36FE0DC08F
:10097000232D2E7FA22E891458F434FE0BC032FC96
:1009800009C0832D8E7EA82E05C0B82CA32C03C0D1
:10099000B82C01C0B92CA4FE0FC0FE01E80DF11D5A
:1009A0008081803321F49A2D997EA92E09C0A2FE60
:1009B00006C0B394B39404C08A2D867809F0B3942A
:1009C000A3FC11C0A0FE06C0B21488F4280C922C1F
:1009D0009B180EC0B21460F4B60180E290E00E9451
:1009E0005705B394F7CFB21418F42B1802C0982C03
:1009F000212CA4FE10C0B60180E390E00E945705B0
:100A0000A2FE17C0A1FC03C088E790E002C088E501
:100A100090E0B6010CC08A2D867859F0A1FE02C084
:100A20008BE201C080E2A7FC8DE2B60190E00E945B
:100A30005705891438F4B60180E390E00E94570509
:100A40009A94F7CF8A94F301E80DF11D8081B601E5
:100A500090E00E9457058110F5CF222009F442CE84
:100A6000B60180E290E00E9457052A94F6CFF60185
:100A70008681978102C08FEF9FEF2B96E2E10C9465
:100A80000D06FC010590615070400110D8F780956B
:100A900090958E0F9F1F0895FC016150704001904A
:100AA0000110D8F7809590958E0F9F1F08950F9392
:100AB0001F93CF93DF93FB01238121FD03C08FEFB1
:100AC0009FEF2CC022FF16C04681578124813581BB
:100AD0004217530744F4A081B1819D012F5F3F4F1E
:100AE000318320838C93268137812F5F3F4F37835B
:100AF000268314C08B01EC01FB010084F185E02DFD
:100B00000995892BE1F6D80116968D919C9117973E
:100B1000019617969C938E931697CE01DF91CF91F5
:100B20001F910F910895FA01AA27283051F1203121
:100B300081F1E8946F936E7F6E5F7F4F8F4F9F4F71
:100B4000AF4FB1E03ED0B4E03CD0670F781F891FB3
:100B50009A1FA11D680F791F8A1F911DA11D6A0F81
:100B6000711D811D911DA11D20D009F468943F9134
:100B70002AE0269F11243019305D3193DEF6CF0133
:100B80000895462F4770405D4193B3E00FD0C9F7F9
:100B9000F6CF462F4F70405D4A3318F0495D31FD66
:100BA0004052419302D0A9F7EACFB4E0A6959795B9
:100BB000879577956795BA95C9F70097610571058F
:100BC00008959B01AC010A2E0694579547953795D9
:100BD0002795BA95C9F7620F731F841F951FA01D33
:100BE00008952F923F924F925F926F927F928F92D1
:100BF0009F92AF92BF92CF92DF92EF92FF920F93AC
:100C00001F93CF93DF93CDB7DEB7CA1BDB0B0FB6B5
:100C1000F894DEBF0FBECDBF09942A883988488872
:100C20005F846E847D848C849B84AA84B984C88408
:100C3000DF80EE80FD800C811B81AA81B981CE0FFF
:100C4000D11D0FB6F894DEBF0FBECDBFED010895E4
:040C5000F894FFCF46
:100C54003132334134353642373839432A3023442C
:100C6400000000A04048493A2564204C4F573A25DB
:100C7400640049563A2D2D2D2D2041563A2D2D2D07
:100C84002D0048493A2D2D2D2D204C4F3A2D2D2D38
:100C94002D0049563A232323232041563A23232364
:020CA40023002B
:00000001FF
