:100000000C942A000C9447000C9447000C94470071
:100010000C9447000C9447000C9447000C94470044
:100020000C9447000C9447000C9447000C94470034
:100030000C9447000C9447000C9447000C94470024
:100040000C9447000C9447000C9447000C94470014
:100050000C94470011241FBECFE5D8E0DEBFCDBF12
:1000600010E0A0E6B0E0ECEDF3E102C005900D92E7
:10007000AE3EB107D9F720E0AEEEB0E001C01D9270
:10008000AA3FB207E1F70E9437030C94EC090C94E5
:1000900000008FE081BD08959C0183E083BF88EB61
:1000A00008C082BF98B7916098BFA89508B600FEB7
:1000B000FDCF21503109A8F713BE08959C0183E0BC
:1000C00083BF89EF08C082BF98B7916098BFA89599
:1000D00008B600FEFDCF21503109A8F713BE0895E0
:1000E000662311F0C09A01C0C098C19882BB8FEFFF
:1000F00081BBC29A000000000000C2980895C09819
:10010000C19A11BA90B3C29A00000000000011BA5F
:1001100090B3C29899239CF30E9470000895B89AF6
:10012000B99ABA9A80E190E00E944C0060E080E3C6
:100130000E94700085E090E00E944C0060E080E347
:100140000E94700081E090E00E944C0060E08CE32F
:100150000E947F0060E08CE00E947F0060E086E00B
:100160000E947F0060E081E00E947F00089560E0CF
:1001700081E00E947F000895CF93C62F98E2899F67
:10018000C00D112460E082E00E947F00CC2331F09A
:1001900060E084E10E947F00C150D1F7CF910895C3
:1001A000CF93DF93EC012196FC018081882331F00D
:1001B00061E00E947F0089918111FACFDF91CF9198
:1001C0000895CF93DF9314BA15BA44B321E030E019
:1001D000F90102C0EE0FFF1F8A95E2F7CF01842BD1
:1001E00084BB85B3EB0124960C2E02C0220F331F73
:1001F0000A94E2F7282B25BB81E090E00E944C0096
:1002000023B330E002C035952795CA95E2F781E027
:1002100090E020FF02C080E090E0DF91CF91089550
:100220000F931F93CF93DF9300E010E018C0BE013F
:10023000C8010E94E100009749F0000F111F000F54
:10024000111FC00FD11FCE0101960CC02196C430E2
:10025000D10569F70F5F1F4F0430110519F0C0E099
:10026000D0E0E5CFDF91CF911F910F910895CF920C
:10027000DF92EF92FF920F931F93CF93DF93EB01E7
:10028000BC01990F880B990B0E9436059B01AC01AC
:1002900060E070E48CE996E40E948C040E94700493
:1002A0000E94FE049B018B01772314F40F5F1F4F04
:1002B000159507952017310719F48B010150110985
:1002C0006B01C01AD10A45E54C9FC0014D9F900DAE
:1002D0001124B9010E9499067B011616170674F4C1
:1002E000C0E0D0E0C39AC8010E945E00C398C60176
:1002F0000E945E002196EC16FD06A1F7DF91CF91DA
:100300001F910F91FF90EF90DF90CF90089580E4C0
:1003100087B987E086B987B187B9089586B1806CBF
:1003200086B9349BFECF349A84B195B1089510926A
:10033000F9001092F8001092F7001092F60080E099
:1003400094E09093A00080939F001092F20010928E
:10035000F3001092F4001092F5001092F100109248
:10036000F0001092EF001092EE0008954F925F920D
:100370006F927F928F929F92AF92BF92CF92DF92B5
:10038000EF92FF92CF93DF93CDB7DEB7AC970FB666
:10039000F894DEBF0FBECDBF8091F8009091F900B8
:1003A000009799F480E1EDECF0E0DE011196019008
:1003B0000D928A95E1F780E1EDEDF0E0DE015196D6
:1003C00001900D928A95E1F72FC1029759F4809020
:1003D000930090909400A0909500B09096006EEFDE
:1003E0007FEF05C0812C912C540161E070E0809179
:1003F0009100909192000E949906072E000C880BA4
:10040000990B0E9436059B01AC016091930070919D
:10041000940080919500909196000E948C046B014D
:100420007C016091F6007091F700072E000C880B9C
:10043000990B0E943605A70196010E942C06A50182
:1004400094010E94040469A37AA38BA39CA36091E6
:100450009F007091A000072E000C880B990B0E9442
:100460003605A70196010E942C06A50194010E9461
:1004700004046DA37EA38FA398A72091EE00309172
:10048000EF00032E000C440B550B6091F2007091AD
:10049000F3008091F4009091F5000E94AD06CA012E
:1004A000B9010E943605A70196010E942C06A501FC
:1004B00094010E9404042B013C016091F0007091B2
:1004C000F100072E000C880B990B0E943605A7013E
:1004D00096010E942C06A50194010E94040469A7BC
:1004E0007AA78BA79CA7C301B2010E94FE044B010F
:1004F0005C0169A57AA58BA59CA50E94FE046B01F1
:100500007C01B401092C000C880B990B0E94360564
:100510009B01AC01C301B2010E94030420E030E062
:1005200048EC52E40E942C060E94FE047F936F93D5
:100530009F928F92B6010D2C000C880B990B0E9494
:1005400036059B01AC0169A57AA58BA59CA50E94E7
:10055000030420E030E048EC52E40E942C060E94A4
:10056000FE047F936F93DF92CF9281EA90E09F9396
:100570008F93CE0101969F938F930E9402076DA1E6
:100580007EA18FA198A50E94FE046B017C0169A148
:100590007AA18BA19CA10E94FE044B015C01B601D3
:1005A0000D2C000C880B990B0E9436059B01AC01A9
:1005B0006DA17EA18FA198A50E94030420E030E0E8
:1005C00048EC52E40E942C060E94FE047F936F9335
:1005D000DF92CF92B401092C000C880B990B0E947A
:1005E00036059B01AC0169A17AA18BA19CA10E9457
:1005F000030420E030E048EC52E40E942C060E9404
:10060000FE047F936F939F928F9287EB90E09F936E
:100610008F93CE0141969F938F930E9402070FB64E
:10062000F894DEBF0FBECDBF0E94B700CE01019689
:100630000E94D00060E081E00E94BC00CE014196A3
:100640000E94D000AC960FB6F894DEBF0FBECDBFAF
:10065000DF91CF91FF90EF90DF90CF90BF90AF9060
:100660009F908F907F906F905F904F90089588E05B
:1006700087BB0E9449000E948F000E9487010F2EB5
:10068000F3E7EF2EF0E0FF2EF02D09E710E068947D
:10069000CC24C1F8D12CC1E0D0E08091F800909139
:1006A000F900892B09F489C00E948E01BC01909346
:1006B000F1008093F000092E000CAA0BBB0B809078
:1006C000F2009090F300A090F400B090F500880D37
:1006D000991DAA1DBB1D8093F2009093F300A09377
:1006E000F400B093F5008091F6009091F700861722
:1006F000970724F47093F7006093F60080919F00B1
:100700009091A0006817790724F47093A00060937B
:100710009F00072E000C880B990B0E94360520E0E5
:1007200030E040EA50E40E942C0620E030E040E84F
:100730005AE30E942C064B015C0120919B003091F2
:100740009C0040919D0050919E000E942706181623
:100750007CF48091710090917200F7016281738145
:100760000E949906F801868597850E9437011CC072
:1007700020919700309198004091990050919A00F3
:10078000C501B4010E948704882374F4809171002C
:1007900090917200F701628173810E949906F801BD
:1007A000868597850E9437018091EE009091EF0039
:1007B00001969093EF008093EE000E941001019744
:1007C000D8F0FC01E05AFF4F8081813339F487B1C2
:1007D00087B9D093F900C093F8000EC0823329F492
:1007E00087B187B90E94970107C0833329F43C9AE7
:1007F000D092F900C092F8000E94B60184EF91E017
:100800000E944C004ACF5058BB27AA270E941B04C5
:100810000C94D5050E94C70538F00E94CE0520F043
:1008200039F49F3F19F426F40C94C4050EF4E095B6
:10083000E7FB0C949505E92F0E94E60558F3BA17DB
:10084000620773078407950720F079F4A6F50C94E6
:1008500020060EF4E0950B2EBA2FA02D0B01B90146
:1008600090010C01CA01A0011124FF27591B99F026
:10087000593F50F4503E68F11A16F040A22F232F32
:10088000342F4427585FF3CF469537952795A79582
:10089000F0405395C9F77EF41F16BA0B620B730B29
:1008A000840BBAF09150A1F0FF0FBB1F661F771F9A
:1008B000881FC2F70EC0BA0F621F731F841F48F44F
:1008C000879577956795B795F7959E3F08F0B0CFD8
:1008D0009395880F08F09927EE0F979587950895BF
:1008E0000E94080690F09F3748F4911116F40C947A
:1008F000210660E070E080E89FE3089526F01B1673
:10090000611D711D811D0C949B050C94B6050E9400
:10091000710508F481E008950E94A0040C94D505A7
:100920000E94CE0558F00E94C70540F029F45F3FB1
:1009300029F00C94950551110C9421060C94C405D2
:100940000E94E60568F39923B1F3552391F3951BB3
:10095000550BBB27AA2762177307840738F09F5FE0
:100960005F4F220F331F441FAA1FA9F335D00E2E4D
:100970003AF0E0E832D091505040E695001CCAF7BA
:100980002BD0FE2F29D0660F771F881FBB1F26177D
:1009900037074807AB07B0E809F0BB0B802DBF0154
:1009A000FF2793585F4F3AF09E3F510578F00C9423
:1009B00095050C9421065F3FE4F3983ED4F38695A9
:1009C00077956795B795F7959F5FC9F7880F911D44
:1009D0009695879597F90895E1E0660F771F881F30
:1009E000BB1F621773078407BA0720F0621B730BE3
:1009F000840BBA0BEE1F88F7E09508950E94050559
:100A00006894B1110C94210608950E94EE0588F0B7
:100A10009F5798F0B92F9927B751B0F0E1F0660FC2
:100A2000771F881F991F1AF0BA95C9F714C0B13003
:100A300091F00E942006B1E008950C942006672FE3
:100A4000782F8827B85F39F0B93FCCF38695779532
:100A50006795B395D9F73EF490958095709561951B
:100A60007F4F8F4F9F4F0895E89409C097FB3EF446
:100A700090958095709561957F4F8F4F9F4F9923EB
:100A8000A9F0F92F96E9BB279395F6958795779569
:100A90006795B795F111F8CFFAF4BB0F11F460FF29
:100AA0001BC06F5F7F4F8F4F9F4F16C0882311F081
:100AB00096E911C0772321F09EE8872F762F05C095
:100AC000662371F096E8862F70E060E02AF09A9530
:100AD000660F771F881FDAF7880F9695879597F925
:100AE0000895990F0008550FAA0BE0E8FEEF1616BF
:100AF0001706E807F907C0F012161306E407F50712
:100B000098F0621B730B840B950B39F40A2661F085
:100B1000232B242B252B21F408950A2609F4A14028
:100B2000A6958FEF811D811D089597F99F6780E835
:100B300070E060E00895882371F4772321F09850E5
:100B4000872B762F07C0662311F499270DC090518B
:100B5000862B70E060E02AF09A95660F771F881F59
:100B6000DAF7880F9695879597F908959F3F31F0AA
:100B7000915020F4879577956795B795880F911DCB
:100B80009695879597F908959FEF80EC0895002436
:100B90000A941616170618060906089500240A94E2
:100BA00012161306140605060895092E0394000C68
:100BB00011F4882352F0BB0F40F4BF2B11F460FFF7
:100BC00004C06F5F7F4F8F4F9F4F089557FD905820
:100BD000440F551F59F05F3F71F04795880F97FB01
:100BE000991F61F09F3F79F08795089512161306BB
:100BF0001406551FF2CF4695F1DF08C016161706EA
:100C00001806991FF1CF869571056105089408951E
:100C10000E94EE05A0F0BEE7B91788F4BB279F3805
:100C200060F41616B11D672F782F8827985FF7CFCD
:100C3000869577956795B11D93959639C8F3089574
:100C4000E894BB2766277727CB0197F908950E9480
:100C5000710508F48FEF08950E943F060C94D505A6
:100C60000E94C70538F00E94CE0520F0952311F0B0
:100C70000C9495050C94C40511240C9421060E9433
:100C8000E60570F3959FC1F3950F50E0551F629FE5
:100C9000F001729FBB27F00DB11D639FAA27F00DD5
:100CA000B11DAA1F649F6627B00DA11D661F829FFC
:100CB0002227B00DA11D621F739FB00DA11D621FE1
:100CC000839FA00D611D221F749F3327A00D611DFE
:100CD000231F849F600D211D822F762F6A2F1124E0
:100CE0009F5750409AF0F1F088234AF0EE0FFF1F13
:100CF000BB1F661F771F881F91505040A9F79E3F6A
:100D0000510580F00C9495050C9421065F3FE4F3A7
:100D1000983ED4F3869577956795B795F795E795BF
:100D20009F5FC1F7FE2B880F911D9695879597F9C8
:100D3000089597FB072E16F4009407D077FD09D08D
:100D40000E94CC0607FC05D03EF4909581959F4FFC
:100D50000895709561957F4F0895052E97FB1EF4B9
:100D600000940E94C40657FD07D00E94E00607FCCD
:100D700003D04EF40C94C4065095409530952195BF
:100D80003F4F4F4F5F4F08959095809570956195B7
:100D90007F4F8F4F9F4F0895AA1BBB1B51E107C088
:100DA000AA1FBB1FA617B70710F0A61BB70B881FFB
:100DB000991F5A95A9F780959095BC01CD0108958A
:100DC000A1E21A2EAA1BBB1BFD010DC0AA1FBB1F4F
:100DD000EE1FFF1FA217B307E407F50720F0A21BC1
:100DE000B30BE40BF50B661F771F881F991F1A942E
:100DF00069F760957095809590959B01AC01BD0158
:100E0000CF010895AEE0B0E0E8E0F7E00C94C3094C
:100E10000D891E8986E08C831A8309838FEF9FE7F3
:100E20009E838D83AE01475E5F4F6F89788DCE01C3
:100E300001960E942407EF81F885E00FF11F1082D0
:100E40002E96E4E00C94DF09ABE0B0E0EAE2F7E0D4
:100E50000C94B5096C017B018A01FC011782168292
:100E6000838181FFCCC1CE0101963C01F6019381C3
:100E7000F70193FD859193FF81917F01882309F408
:100E8000BAC1853239F493FD859193FF81917F0139
:100E9000853229F4B60190E00E941B09E7CF912C1E
:100EA000212C312CFFE1F315D8F08B3279F038F496
:100EB000803279F08332A1F4232D20611DC08D3260
:100EC00061F0803369F4232D216016C0832D826088
:100ED000382EE32DE4603E2E2AC0F32DF8601DC0AD
:100EE00037FC2DC020ED280F2A3040F08E32B9F4A7
:100EF00036FC81C1232D2064322E19C036FE06C077
:100F00008AE0989E200D1124922E11C0EAE02E9EB8
:100F1000200D1124222EF32DF0623F2E08C08C36B6
:100F200021F4832D8068382E02C0883641F4F70101
:100F300093FD859193FF81917F018111B3CF982F0C
:100F40009F7D9554933028F40C5F1F4F9FE3998346
:100F50000DC0833631F0833771F0833509F059C005
:100F600021C0F801808189830E5F1F4F88248394FC
:100F7000912C530113C02801F2E04F0E511CF801CF
:100F8000A080B18036FE03C0692D70E002C06FEF13
:100F90007FEFC5010E9410094C018201F32DFF77FC
:100FA0003F2E16C0280122E0420E511CF801A080FD
:100FB000B18036FE03C0692D70E002C06FEF7FEF95
:100FC000C5010E9405094C01F32DF0683F2E8201F6
:100FD00033FC1BC0822D90E088169906B0F4B60150
:100FE00080E290E00E941B092A94F4CFF50137FCBF
:100FF000859137FE81915F01B60190E00E941B0947
:1010000021102A9421E0821A91088114910471F729
:10101000E8C0843611F0893641F5F80137FE07C083
:1010200060817181828193810C5F1F4F08C0608154
:101030007181072E000C880B990B0E5F1F4FF32D4B
:10104000FF763F2E97FF09C090958095709561952A
:101050007F4F8F4F9F4FF0683F2E2AE030E0A30173
:101060000E945709882E861845C0853731F4232DF4
:101070002F7EB22E2AE030E025C0932D997FB92E25
:101080008F36C1F018F4883579F0B5C0803719F083
:10109000883721F0B0C0E92FE061BE2EB4FE0DC04C
:1010A000FB2DF460BF2E09C034FE0AC0292F266034
:1010B000B22E06C028E030E005C020E130E002C0DA
:1010C00020E132E0F801B7FE07C0608171818281C2
:1010D00093810C5F1F4F06C06081718180E090E0BA
:1010E0000E5F1F4FA3010E945709882E8618FB2D03
:1010F000FF773F2E36FE0DC0232D2E7FA22E8914A2
:1011000058F434FE0BC032FC09C0832D8E7EA82E0D
:1011100005C0B82CA32C03C0B82C01C0B92CA4FE68
:101120000FC0FE01E80DF11D8081803321F49A2D5E
:10113000997EA92E09C0A2FE06C0B394B39404C040
:101140008A2D867809F0B394A3FC11C0A0FE06C0D6
:10115000B21488F4280C922C9B180EC0B21460F4C0
:10116000B60180E290E00E941B09B394F7CFB2145D
:1011700018F42B1802C0982C212CA4FE10C0B60124
:1011800080E390E00E941B09A2FE17C0A1FC03C0EF
:1011900088E790E002C088E590E0B6010CC08A2D97
:1011A000867859F0A1FE02C08BE201C080E2A7FC64
:1011B0008DE2B60190E00E941B09891438F4B60153
:1011C00080E390E00E941B099A94F7CF8A94F30180
:1011D000E80DF11D8081B60190E00E941B0981108D
:1011E000F5CF222009F442CEB60180E290E00E94C1
:1011F0001B092A94F6CFF6018681978102C08FEFF2
:101200009FEF2B96E2E10C94D109FC01059061500F
:1012100070400110D8F7809590958E0F9F1F08950C
:10122000FC016150704001900110D8F780959095B5
:101230008E0F9F1F08950F931F93CF93DF93FB0192
:10124000238121FD03C08FEF9FEF2CC022FF16C02A
:1012500046815781248135814217530744F4A08188
:10126000B1819D012F5F3F4F318320838C93268175
:1012700037812F5F3F4F3783268314C08B01EC01EA
:10128000FB010084F185E02D0995892BE1F6D80159
:1012900016968D919C911797019617969C938E9315
:1012A0001697CE01DF91CF911F910F910895FA010A
:1012B000AA27283051F1203181F1E8946F936E7F95
:1012C0006E5F7F4F8F4F9F4FAF4FB1E03ED0B4E086
:1012D0003CD0670F781F891F9A1FA11D680F791FC7
:1012E0008A1F911DA11D6A0F711D811D911DA11DD8
:1012F00020D009F468943F912AE0269F11243019E8
:10130000305D3193DEF6CF010895462F4770405D82
:101310004193B3E00FD0C9F7F6CF462F4F70405D31
:101320004A3318F0495D31FD4052419302D0A9F78C
:10133000EACFB4E0A6959795879577956795BA9586
:10134000C9F700976105710508959B01AC010A2E4C
:1013500006945795479537952795BA95C9F7620F23
:10136000731F841F951FA01D08952F923F924F92C7
:101370005F926F927F928F929F92AF92BF92CF9225
:10138000DF92EF92FF920F931F93CF93DF93CDB72E
:10139000DEB7CA1BDB0B0FB6F894DEBF0FBECDBFA6
:1013A00009942A88398848885F846E847D848C8477
:1013B0009B84AA84B984C884DF80EE80FD800C8180
:1013C0001B81AA81B981CE0FD11D0FB6F894DEBF63
:0C13D0000FBECDBFED010895F894FFCFD3
:1013DC003132334134353642373839432A3023449D
:1013EC0000C800010002000400DC00E900F6000562
:1013FC000115012501370149015D01710187019F2B
:10140C000100040000A0400000003F0000904000DC
:10141C000449563A25642E253032642041563A252B
:10142C00642E253032640048493A25642E2530322A
:10143C0064204C4F3A25642E253032640049563ACC
:10144C002D2D2D2D2041563A2D2D2D2D0048493A6C
:0E145C002D2D2D2D204C4F3A2D2D2D2D000025
:00000001FF
