:100000000C942A000C9447000C9447000C94470071
:100010000C9447000C9447000C9447000C94470044
:100020000C9447000C9447000C9447000C94470034
:100030000C9447000C9447000C9447000C94470024
:100040000C9447000C9447000C9447000C94470014
:100050000C94470011241FBECFE5D8E0DEBFCDBF12
:1000600010E0A0E6B0E0E4E8F3E102C005900D92F4
:10007000A83EB107D9F720E0A8EEB0E001C01D927C
:10008000A43FB207E1F70E941B030C94C0090C9433
:1000900000008FE081BD08959C0183E083BF88EB61
:1000A00008C082BF98B7916098BFA89508B600FEB7
:1000B000FDCF21503109A8F713BE08959C0183E0BC
:1000C00083BF89EF08C082BF98B7916098BFA89599
:1000D00008B600FEFDCF21503109A8F713BE0895E0
:1000E000662311F0C09A01C0C098C19882BB8FEFFF
:1000F00081BBC29A000000000000C2980895C09819
:10010000C19A11BA90B3C29A00000000000011BA5F
:1001100090B3C29899239CF30E9470000895B89AF6
:10012000B99ABA9A80E190E00E944C0060E080E3C6
:100130000E94700085E090E00E944C0060E080E347
:100140000E94700081E090E00E944C0060E08CE32F
:100150000E947F0060E08CE00E947F0060E086E00B
:100160000E947F0060E081E00E947F00089560E0CF
:1001700081E00E947F000895CF93C62F98E2899F67
:10018000C00D112460E082E00E947F00CC2331F09A
:1001900060E084E10E947F00C150D1F7CF910895C3
:1001A000CF93DF93EC012196FC018081882331F00D
:1001B00061E00E947F0089918111FACFDF91CF9198
:1001C0000895CF93DF9314BA15BA44B321E030E019
:1001D000F90102C0EE0FFF1F8A95E2F7CF01842BD1
:1001E00084BB85B3EB0124960C2E02C0220F331F73
:1001F0000A94E2F7282B25BB81E090E00E944C0096
:1002000023B330E002C035952795CA95E2F781E027
:1002100090E020FF02C080E090E0DF91CF91089550
:100220000F931F93CF93DF9300E010E018C0BE013F
:10023000C8010E94E100009749F0000F111F000F54
:10024000111FC00FD11FCE0101960CC02196C430E2
:10025000D10569F70F5F1F4F0430110519F0C0E099
:10026000D0E0E5CFDF91CF911F910F910895CF920C
:10027000DF92EF92FF920F931F93CF93DF93EB01E7
:10028000BC01990F880B990B0E940A059B01AC01D8
:1002900060E070E48CE996E40E9460040E944404EB
:1002A0000E94D2049B018B01772314F40F5F1F4F30
:1002B000159507952017310719F48B010150110985
:1002C0006B01C01AD10A45E54C9FC0014D9F900DAE
:1002D0001124B9010E946D067B011616170674F4ED
:1002E000C0E0D0E0C39AC8010E945E00C398C60176
:1002F0000E945E002196EC16FD06A1F7DF91CF91DA
:100300001F910F91FF90EF90DF90CF90089580E4C0
:1003100087B987E086B9089587B187B986B1806CBF
:1003200086B9349BFECF349A84B195B1089510926A
:10033000F3001092F2001092F1001092F00080E0B1
:1003400094E090939A00809399001092EC001092A0
:10035000ED001092EE001092EF001092EB00109260
:10036000EA001092E9001092E80008954F925F921F
:100370006F927F928F929F92AF92BF92CF92DF92B5
:10038000EF92FF92CF93DF93CDB7DEB7AC970FB666
:10039000F894DEBF0FBECDBF8091F2009091F300C4
:1003A000892B99F480E1E7ECF0E0DE0111960190F1
:1003B0000D928A95E1F780E1E7EDF0E0DE015196DC
:1003C00001900D928A95E1F713C16091F000709150
:1003D000F100072E000C880B990B0E940A0520E003
:1003E00030E040EA50E40E94000620E030E040E8BF
:1003F0005AE30E94000669A37AA38BA39CA3609191
:10040000990070919A00072E000C880B990B0E949E
:100410000A0520E030E040EA50E40E94000620E0B7
:1004200030E040E85AE30E9400066DA37EA38FA34C
:1004300098A72091E8003091E900032E000C440BAE
:10044000550B6091EC007091ED008091EE00909161
:10045000EF000E948106CA01B9010E940A0520E04E
:1004600030E040EA50E40E94000620E030E040E83E
:100470005AE30E9400062B013C016091EA00709152
:10048000EB00072E000C880B990B0E940A0520E058
:1004900030E040EA50E40E94000620E030E040E80E
:1004A0005AE30E94000669A77AA78BA79CA7C301FD
:1004B000B2010E94D2044B015C0169A57AA58BA50B
:1004C0009CA50E94D2046B017C01B401092C000C94
:1004D000880B990B0E940A059B01AC01C301B20174
:1004E0000E94D70320E030E048EC52E40E9400066E
:1004F0000E94D2047F936F939F928F92B6010D2C2E
:10050000000C880B990B0E940A059B01AC0169A5A0
:100510007AA58BA59CA50E94D70320E030E048EC8B
:1005200052E40E9400060E94D2047F936F93DF92F0
:10053000CF928BE990E09F938F93CE0101969F938A
:100540008F930E94D6066DA17EA18FA198A50E94CF
:10055000D2044B015C0169A17AA18BA19CA10E94EC
:10056000D2042B013C01B401092C000C880B990B1F
:100570000E940A059B01AC016DA17EA18FA198A5E7
:100580000E94D70320E030E048EC52E40E940006CD
:100590000E94D2047F936F939F928F92B201052C99
:1005A000000C880B990B0E940A059B01AC0169A104
:1005B0007AA18BA19CA10E94D70320E030E048ECF7
:1005C00052E40E9400060E94D2047F936F935F92D0
:1005D0004F9281EB90E09F938F93CE0141969F9332
:1005E0008F930E94D6060FB6F894DEBF0FBECDBF24
:1005F0000E94B700CE0101960E94D00060E081E029
:100600000E94BC00CE0141960E94D000AC960FB66D
:10061000F894DEBF0FBECDBFDF91CF91FF90EF907A
:10062000DF90CF90BF90AF909F908F907F906F9012
:100630005F904F90089588E087BB0E9449000E9418
:100640008F000E9487010F2EF3E7EF2EF0E0FF2EC0
:10065000F02D09E710E0C1E0D0E08091F200909128
:10066000F300892B09F489C00E948C01BC0190938E
:10067000EB008093EA00092E000CAA0BBB0B8090C4
:10068000EC009090ED00A090EE00B090EF00880D8F
:10069000991DAA1DBB1D8093EC009093ED00A093C3
:1006A000EE00B093EF008091F0009091F10086177A
:1006B000970724F47093F1006093F0008091990003
:1006C00090919A006817790724F470939A006093C8
:1006D0009900072E000C880B990B0E940A0520E058
:1006E00030E040EA50E40E94000620E030E040E8BC
:1006F0005AE30E9400064B015C0120919500309165
:10070000960040919700509198000E94FB051816A2
:100710007CF48091710090917200F7016281738185
:100720000E946D06F801868597850E9437011CC0DE
:10073000209191003091920040919300509194004B
:10074000C501B4010E945B04882374F48091710098
:1007500090917200F701628173810E946D06F80129
:10076000868597850E9437018091E8009091E90085
:1007700001969093E9008093E8000E941001019790
:1007800078F0FC01E05AFF4F8081813329F4D09347
:10079000F300C093F20004C0823311F40E94970169
:1007A0000E94B60184EF91E00E944C0056CF505851
:1007B000BB27AA270E94EF030C94A9050E949B0562
:1007C00038F00E94A20520F039F49F3F19F426F476
:1007D0000C9498050EF4E095E7FB0C946905E92F5D
:1007E0000E94BA0558F3BA17620773078407950782
:1007F00020F079F4A6F50C94F4050EF4E0950B2E98
:10080000BA2FA02D0B01B90190010C01CA01A00162
:100810001124FF27591B99F0593F50F4503E68F1BD
:100820001A16F040A22F232F342F4427585FF3CFFE
:10083000469537952795A795F0405395C9F77EF4CF
:100840001F16BA0B620B730B840BBAF09150A1F018
:10085000FF0FBB1F661F771F881FC2F70EC0BA0F9E
:10086000621F731F841F48F4879577956795B79526
:10087000F7959E3F08F0B0CF9395880F08F0992721
:10088000EE0F9795879508950E94DC0590F09F37AD
:1008900048F4911116F40C94F50560E070E080E8DE
:1008A0009FE3089526F01B16611D711D811D0C9498
:1008B0006F050C948A050E94450508F481E00895AF
:1008C0000E9474040C94A9050E94A20558F00E948D
:1008D0009B0540F029F45F3F29F00C946905511104
:1008E0000C94F5050C9498050E94BA0568F39923B9
:1008F000B1F3552391F3951B550BBB27AA2762171C
:100900007307840738F09F5F5F4F220F331F441F28
:10091000AA1FA9F335D00E2E3AF0E0E832D091505C
:100920005040E695001CCAF72BD0FE2F29D0660F49
:10093000771F881FBB1F261737074807AB07B0E88C
:1009400009F0BB0B802DBF01FF2793585F4F3AF092
:100950009E3F510578F00C9469050C94F5055F3FB6
:10096000E4F3983ED4F3869577956795B795F79518
:100970009F5FC9F7880F911D9695879597F9089500
:10098000E1E0660F771F881FBB1F6217730784079C
:10099000BA0720F0621B730B840BBA0BEE1F88F7AB
:1009A000E09508950E94D9046894B1110C94F5055E
:1009B00008950E94C20588F09F5798F0B92F992793
:1009C000B751B0F0E1F0660F771F881F991F1AF03A
:1009D000BA95C9F714C0B13091F00E94F405B1E0A6
:1009E00008950C94F405672F782F8827B85F39F0A5
:1009F000B93FCCF3869577956795B395D9F73EF4D3
:100A000090958095709561957F4F8F4F9F4F08957A
:100A1000E89409C097FB3EF4909580957095619598
:100A20007F4F8F4F9F4F9923A9F0F92F96E9BB274E
:100A30009395F695879577956795B795F111F8CFCA
:100A4000FAF4BB0F11F460FF1BC06F5F7F4F8F4F35
:100A50009F4F16C0882311F096E911C0772321F02B
:100A60009EE8872F762F05C0662371F096E8862FC3
:100A700070E060E02AF09A95660F771F881FDAF71A
:100A8000880F9695879597F90895990F0008550F47
:100A9000AA0BE0E8FEEF16161706E807F907C0F004
:100AA00012161306E407F50798F0621B730B840B0C
:100AB000950B39F40A2661F0232B242B252B21F4E6
:100AC00008950A2609F4A140A6958FEF811D811D86
:100AD000089597F99F6780E870E060E008958823A3
:100AE00071F4772321F09850872B762F07C0662367
:100AF00011F499270DC09051862B70E060E02AF028
:100B00009A95660F771F881FDAF7880F9695879555
:100B100097F908959F3F31F0915020F4879577958C
:100B20006795B795880F911D9695879597F90895C4
:100B30009FEF80EC089500240A94161617061806F5
:100B40000906089500240A941216130614060506D1
:100B50000895092E0394000C11F4882352F0BB0F62
:100B600040F4BF2B11F460FF04C06F5F7F4F8F4FC5
:100B70009F4F089557FD9058440F551F59F05F3F00
:100B800071F04795880F97FB991F61F09F3F79F0AF
:100B900087950895121613061406551FF2CF469531
:100BA000F1DF08C0161617061806991FF1CF8695B3
:100BB00071056105089408950E94C205A0F0BEE782
:100BC000B91788F4BB279F3860F41616B11D672F3C
:100BD000782F8827985FF7CF869577956795B11D11
:100BE00093959639C8F30895E894BB27662777272D
:100BF000CB0197F908950E94450508F48FEF0895F9
:100C00000E9413060C94A9050E949B0538F00E94CF
:100C1000A20520F0952311F00C9469050C94980519
:100C200011240C94F5050E94BA0570F3959FC1F349
:100C3000950F50E0551F629FF001729FBB27F00D8A
:100C4000B11D639FAA27F00DB11DAA1F649F6627DF
:100C5000B00DA11D661F829F2227B00DA11D621F2E
:100C6000739FB00DA11D621F839FA00D611D221FE8
:100C7000749F3327A00D611D231F849F600D211DCC
:100C8000822F762F6A2F11249F5750409AF0F1F04F
:100C900088234AF0EE0FFF1FBB1F661F771F881FB8
:100CA00091505040A9F79E3F510580F00C94690582
:100CB0000C94F5055F3FE4F3983ED4F38695779561
:100CC0006795B795F795E7959F5FC1F7FE2B880F5E
:100CD000911D9695879597F9089597FB072E16F421
:100CE000009407D077FD09D00E94A00607FC05D02C
:100CF0003EF4909581959F4F0895709561957F4F33
:100D00000895052E97FB1EF400940E94980657FD47
:100D100007D00E94B40607FC03D04EF40C9498064A
:100D200050954095309521953F4F4F4F5F4F089517
:100D300090958095709561957F4F8F4F9F4F089547
:100D4000AA1BBB1B51E107C0AA1FBB1FA617B707F1
:100D500010F0A61BB70B881F991F5A95A9F780950D
:100D60009095BC01CD010895A1E21A2EAA1BBB1BD0
:100D7000FD010DC0AA1FBB1FEE1FFF1FA217B30767
:100D8000E407F50720F0A21BB30BE40BF50B661F7D
:100D9000771F881F991F1A9469F760957095809541
:100DA00090959B01AC01BD01CF010895AEE0B0E08C
:100DB000ECEDF6E00C9497090D891E8986E08C8392
:100DC0001A8309838FEF9FE79E838D83AE01475E71
:100DD0005F4F6F89788DCE0101960E94F806EF81F2
:100DE000F885E00FF11F10822E96E4E00C94B30911
:100DF000ABE0B0E0EEEFF6E00C9489096C017B010A
:100E00008A01FC0117821682838181FFCCC1CE0149
:100E100001963C01F6019381F70193FD859193FFC3
:100E200081917F01882309F4BAC1853239F493FD99
:100E3000859193FF81917F01853229F4B60190E07D
:100E40000E94EF08E7CF912C212C312CFFE1F31504
:100E5000D8F08B3279F038F4803279F08332A1F413
:100E6000232D20611DC08D3261F0803369F4232D64
:100E7000216016C0832D8260382EE32DE4603E2E63
:100E80002AC0F32DF8601DC037FC2DC020ED280FBF
:100E90002A3040F08E32B9F436FC81C1232D206413
:100EA000322E19C036FE06C08AE0989E200D11240D
:100EB000922E11C0EAE02E9E200D1124222EF32D39
:100EC000F0623F2E08C08C3621F4832D8068382EC6
:100ED00002C0883641F4F70193FD859193FF81911B
:100EE0007F018111B3CF982F9F7D9554933028F4C3
:100EF0000C5F1F4F9FE399830DC0833631F083371A
:100F000071F0833509F059C021C0F80180818983CF
:100F10000E5F1F4F88248394912C530113C0280126
:100F2000F2E04F0E511CF801A080B18036FE03C0E4
:100F3000692D70E002C06FEF7FEFC5010E94E408E9
:100F40004C018201F32DFF773F2E16C0280122E0CD
:100F5000420E511CF801A080B18036FE03C0692DFD
:100F600070E002C06FEF7FEFC5010E94D9084C010D
:100F7000F32DF0683F2E820133FC1BC0822D90E0E0
:100F800088169906B0F4B60180E290E00E94EF085E
:100F90002A94F4CFF50137FC859137FE81915F01EA
:100FA000B60190E00E94EF0821102A9421E0821AF5
:100FB00091088114910471F7E8C0843611F08936E4
:100FC00041F5F80137FE07C060817181828193810C
:100FD0000C5F1F4F08C060817181072E000C880BC9
:100FE000990B0E5F1F4FF32DFF763F2E97FF09C021
:100FF00090958095709561957F4F8F4F9F4FF068CA
:101000003F2E2AE030E0A3010E942B09882E86188B
:1010100045C0853731F4232D2F7EB22E2AE030E0F3
:1010200025C0932D997FB92E8F36C1F018F48835DD
:1010300079F0B5C0803719F0883721F0B0C0E92FBA
:10104000E061BE2EB4FE0DC0FB2DF460BF2E09C0C2
:1010500034FE0AC0292F2660B22E06C028E030E0F8
:1010600005C020E130E002C020E132E0F801B7FE27
:1010700007C060817181828193810C5F1F4F06C020
:101080006081718180E090E00E5F1F4FA3010E949C
:101090002B09882E8618FB2DFF773F2E36FE0DC0BC
:1010A000232D2E7FA22E891458F434FE0BC032FC5F
:1010B00009C0832D8E7EA82E05C0B82CA32C03C09A
:1010C000B82C01C0B92CA4FE0FC0FE01E80DF11D23
:1010D0008081803321F49A2D997EA92E09C0A2FE29
:1010E00006C0B394B39404C08A2D867809F0B394F3
:1010F000A3FC11C0A0FE06C0B21488F4280C922CE8
:101100009B180EC0B21460F4B60180E290E00E9419
:10111000EF08B394F7CFB21418F42B1802C0982C30
:10112000212CA4FE10C0B60180E390E00E94EF08DD
:10113000A2FE17C0A1FC03C088E790E002C088E5CA
:1011400090E0B6010CC08A2D867859F0A1FE02C04D
:101150008BE201C080E2A7FC8DE2B60190E00E9424
:10116000EF08891438F4B60180E390E00E94EF089C
:101170009A94F7CF8A94F301E80DF11D8081B601AE
:1011800090E00E94EF088110F5CF222009F442CEB2
:10119000B60180E290E00E94EF082A94F6CFF601B3
:1011A0008681978102C08FEF9FEF2B96E2E10C942E
:1011B000A509FC010590615070400110D8F7809599
:1011C00090958E0F9F1F0895FC0161507040019013
:1011D0000110D8F7809590958E0F9F1F08950F935B
:1011E0001F93CF93DF93FB01238121FD03C08FEF7A
:1011F0009FEF2CC022FF16C0468157812481358184
:101200004217530744F4A081B1819D012F5F3F4FE6
:10121000318320838C93268137812F5F3F4F378323
:10122000268314C08B01EC01FB010084F185E02DC5
:101230000995892BE1F6D80116968D919C91179707
:10124000019617969C938E931697CE01DF91CF91BE
:101250001F910F910895FA01AA27283051F12031EA
:1012600081F1E8946F936E7F6E5F7F4F8F4F9F4F3A
:10127000AF4FB1E03ED0B4E03CD0670F781F891F7C
:101280009A1FA11D680F791F8A1F911DA11D6A0F4A
:10129000711D811D911DA11D20D009F468943F91FD
:1012A0002AE0269F11243019305D3193DEF6CF01FC
:1012B0000895462F4770405D4193B3E00FD0C9F7C2
:1012C000F6CF462F4F70405D4A3318F0495D31FD2F
:1012D0004052419302D0A9F7EACFB4E0A695979582
:1012E000879577956795BA95C9F700976105710558
:1012F00008959B01AC010A2E0694579547953795A2
:101300002795BA95C9F7620F731F841F951FA01DFB
:1013100008952F923F924F925F926F927F928F9299
:101320009F92AF92BF92CF92DF92EF92FF920F9374
:101330001F93CF93DF93CDB7DEB7CA1BDB0B0FB67E
:10134000F894DEBF0FBECDBF09942A88398848883B
:101350005F846E847D848C849B84AA84B984C884D1
:10136000DF80EE80FD800C811B81AA81B981CE0FC8
:10137000D11D0FB6F894DEBF0FBECDBFED010895AD
:04138000F894FFCF0F
:101384003132334134353642373839432A302344F5
:1013940000C800010002000400DC00E900F60005BA
:1013A4000115012501370149015D01710187019F83
:1013B400010000003F00009040000449563A2564B3
:1013C4002E253032642041563A25642E253032646D
:1013D4000048493A25642E25303264204C4F3A2582
:1013E400642E253032640049563A2D2D2D2D20418E
:1013F400563A2D2D2D2D0048493A2D2D2D2D204CBA
:081404004F3A2D2D2D2D0000A3
:00000001FF
