:100000000C942A000C9447000C9447000C94470071
:100010000C9447000C9447000C9447000C94470044
:100020000C9447000C9447000C9447000C94470034
:100030000C9447000C9447000C9447000C94470024
:100040000C9447000C9447000C9447000C94470014
:100050000C94470011241FBECFE5D8E0DEBFCDBF12
:1000600010E0A0E6B0E0EEEBF2E002C005900D92E9
:10007000A636B107D9F720E0A6E6B0E001C01D9290
:10008000A636B207E1F70E9450010C945D010C9472
:1000900000008FE081BD08959C0183E083BF88EB61
:1000A00008C082BF98B7916098BFA89508B600FEB7
:1000B000FDCF21503109A8F713BE0895662311F032
:1000C000C09A01C0C098C19882BB8FEF81BBC29A11
:1000D000000000000000C2980895C098C19A11BAAB
:1000E00090B3C29A00000000000011BA90B3C29809
:1000F00099239CF30E945E000895B89AB99ABA9A1F
:1001000080E190E00E944C0060E080E30E945E008D
:1001100085E090E00E944C0060E080E30E945E0079
:1001200081E090E00E944C0060E08CE30E946D0052
:1001300060E08CE00E946D0060E086E00E946D004F
:1001400060E081E00E946D00089560E081E00E941F
:100150006D000895CF93C62F98E2899FC00D11249A
:1001600060E082E00E946D00CC2331F060E084E129
:100170000E946D00C150D1F7CF910895CF93DF93C6
:10018000EC012196FC018081882331F061E00E941E
:100190006D0089918111FACFDF91CF910895CF93AE
:1001A000DF9314BA15BA44B321E030E0F90102C07C
:1001B000EE0FFF1F8A95E2F7CF01842B84BB85B336
:1001C000EB0124960C2E02C0220F331F0A94E2F793
:1001D000282B25BB81E090E00E944C0023B330E047
:1001E00002C035952795CA95E2F781E090E020FF9F
:1001F00002C080E090E0DF91CF9108950F931F93AC
:10020000CF93DF9300E010E018C0BE01C8010E9448
:10021000CF00009749F0000F111F000F111FC00FF2
:10022000D11FCE0101960CC02196C430D10569F7CB
:100230000F5F1F4F0430110519F0C0E0D0E0E5CF8B
:10024000DF91CF911F910F910895CF93DF93CDB799
:10025000DEB7A2970FB6F894DEBF0FBECDBF0E94E7
:10026000A50086E0E0E6F0E0DE01119601900D9237
:100270008A95E1F71A8ACE0101960E94BE0060E0DD
:1002800081E00E94AA00CE0142960E94BE00A29682
:100290000FB6F894DEBF0FBECDBFDF91CF910895AA
:1002A0000E9449000E947D000E9425010E94FE00DC
:0E02B00084EF91E00E944C00F7CFF894FFCF4E
:0602BE0068656C6C6F0026
:00000001FF
