:100000000C942A000C9447000C9447000C94470071
:100010000C9447000C9447000C9447000C94470044
:100020000C9447000C9447000C9447000C94470034
:100030000C9447000C9447000C9447000C94470024
:100040000C9447000C9447000C9447000C94470014
:100050000C94470011241FBECFE5D8E0DEBFCDBF12
:1000600010E0A0E6B0E0E6EEFDE002C005900D92E3
:10007000A43CB107D9F720E0A4ECB0E001C01D9288
:10008000AE3DB207E1F70E9424030C94F1060C94F4
:1000900000008FE081BD08959C0183E083BF83E869
:1000A00008C082BF98B7916098BFA89508B600FEB7
:1000B000FDCF21503109A8F713BE0895662311F032
:1000C000C09A01C0C098C19882BB8FEF81BBC29A11
:1000D000000000000000C2980895C098C19A11BAAB
:1000E00090B3C29A00000000000011BA90B3C29809
:1000F00099239CF30E945E000895B89AB99ABA9A1F
:1001000080E190E00E944C0060E080E30E945E008D
:1001100085E090E00E944C0060E080E30E945E0079
:1001200081E090E00E944C0060E08CE30E946D0052
:1001300060E08CE00E946D0060E086E00E946D004F
:1001400060E081E00E946D00089560E081E00E941F
:100150006D000895CF93C62F98E2899FC00D11249A
:1001600060E082E00E946D00CC2331F060E084E129
:100170000E946D00C150D1F7CF910895CF93DF93C6
:10018000EC012196FC018081882331F061E00E941E
:100190006D0089918111FACFDF91CF910895CF93AE
:1001A000DF938091DC009091DD0001968A3091050B
:1001B0002CF49093DD008093DC0009C0E0EDF0E0CA
:1001C0001586148682859385019693878287809110
:1001D000DA009091DB00CC974CF0E0EDF0E0138674
:1001E0001286808591850196918780878091D800BD
:1001F0009091D900CC974CF0E0EDF0E0118610869C
:10020000868197810196978386838091D60090910D
:10021000D70048974CF0E0EDF0E017821682848119
:100220009581019695838483E0EDF0E0C481D581CA
:1002300022813381F901EE0FFF1FE05AFF4F8081C9
:100240009181C817D90784F1E091D000F091D100D5
:10025000CF0183709927892BF9F421303105E1F41E
:10026000CF0164E670E00E94DF03892B39F4CF01EF
:1002700060E971E00E94DF03892B71F4CB31D10575
:1002800011F16D9704F1E0EDF0E01582148282E047
:1002900090E09383828317C0E0EDF0E01582148232
:1002A0002F5F3F4F338322838091D2009091D30000
:1002B0000C974CF0E0EDF0E0138212828081918186
:1002C000019691838083DF91CF910895CF93DF933F
:1002D00014BA15BA44B321E030E0F90102C0EE0FC0
:1002E000FF1F8A95E2F7CF01842B84BB85B3EB0116
:1002F00024960C2E02C0220F331F0A94E2F7282BFB
:1003000025BB81E090E00E944C0023B330E002C0A6
:1003100035952795CA95E2F781E090E020FF02C06D
:1003200080E090E0DF91CF9108950F931F93CF93DA
:10033000DF9300E010E018C0BE01C8010E94660112
:10034000009749F0000F111F000F111FC00FD11FA0
:10035000CE0101960CC02196C430D10569F70F5F1C
:100360001F4F0430110519F0C0E0D0E0E5CFDF9158
:10037000CF911F910F910895EF92FF920F931F93CA
:10038000CF93DF93CDB7DEB761970FB6F894DEBF9A
:100390000FBECDBF0E94A50060E080E00E94AA00D1
:1003A0008091CE009091CF00892B21F48AE890E0D3
:1003B00090E005C089E890E09091CC009F5C1F928E
:1003C0009F931F928F9300ED10E0F80181818F932E
:1003D00080818F938481958101969F938F938281F1
:1003E000938101969F938F938BE890E09F938F93D7
:1003F000CE0101967C019F938F930E940704C70151
:100400000E94BE0060E081E00E94AA00F8012681FF
:1004100037810FB6F894DEBF0FBECDBF8091CE00FE
:100420009091CF000197F1F48091C7008F93809154
:10043000C6008F9383858F9382858F9381858F9359
:1004400080858F933F932F9381EA90E09F938F93C2
:10045000FF92EF920E9407040FB6F894DEBF0FBE22
:10046000CDBF1BC0E0EDF0E083858F9382858F9335
:1004700081858F9380858F933F932F9385EB90E0B9
:100480009F938F93CE0101969F938F930E940704B1
:100490000FB6F894DEBF0FBECDBFCE0101960E940D
:1004A000BE0061960FB6F894DEBF0FBECDBFDF91E0
:1004B000CF911F910F91FF90EF9008952091CC0064
:1004C0003091CD002115310571F42091D200309189
:1004D000D300820F931F99230CF455C09093D3003F
:1004E0008093D20008952130310571F42091D40019
:1004F0003091D500820F931F99230CF444C0909340
:10050000D5008093D40008952230310569F42091FC
:10051000D0003091D100820F931F9923A4F19093C2
:10052000D1008093D00008952330310569F42091E3
:10053000D6003091D700820F931F992324F1909316
:10054000D7008093D60008952430310569F42091B6
:10055000D8003091D900820F931F9923A4F0909373
:10056000D9008093D80008952530310561F4209199
:10057000DA003091DB00820F931F992324F09093CF
:10058000DB008093DA0008958091CC009091CD003B
:10059000009771F48091C6009091C7001816190653
:1005A0000CF044C001979093D3008093D20008953B
:1005B0008130910569F48091C6009091C7001816AA
:1005C0001906A4F501979093D5008093D40008955F
:1005D0008230910549F48091C6009091C7009093B4
:1005E000D1008093D00008958330910549F4809123
:1005F000C6009091C7009093D7008093D6000895CD
:100600008430910549F48091C6009091C700909381
:10061000D9008093D8000895059741F48091C600D1
:100620009091C7009093DB008093DA0008951092B8
:10063000C7001092C6001092C5001092C40010921C
:10064000C9001092C80008950E9449000E947D00D0
:10065000C1E0D0E00E949501019708F4A7C0FC0119
:10066000E858FF4F2081233491F48091CA00909183
:10067000CB00019681709078992324F401978E6FB6
:100680009F6F01969093CB008093CA008FC0243453
:10069000F1F48091CE009091CF0001968170907816
:1006A000992324F401978E6F9F6F01969093CF004A
:1006B0008093CE001092C9001092C8001092C7001B
:1006C0001092C6001092C5001092C4006FC08091B5
:1006D000CE009091CF00892B09F468C0233271F4C9
:1006E0008091CC009091CD00853091050CF05EC0DA
:1006F00001969093CD008093CC0058C02A3271F4BB
:100700008091CC009091CD00181619060CF04EC0C7
:1007100001979093CD008093CC0048C0213421F400
:10072000CE010E945E0242C0223429F48FEF9FEF77
:100730000E945E023BC0D093C900C093C800609184
:10074000C4007091C5006F5F7F4F7093C5006093C8
:10075000C4004091C6005091C700CA01880F991F7C
:10076000440F551F440F551F440F551F840F951FED
:1007700030E020533109820F931F9093C70080937C
:10078000C6008091CC009091CD00029741F4643076
:10079000710561F40E94C4020E94170307C0623011
:1007A000710521F40E94C4020E9417030E94BC013B
:1007B0000E94CF0084E690E00E944C004BCF97FB54
:1007C000072E16F4009407D077FD09D00E94F3039A
:1007D00007FC05D03EF4909581959F4F0895709544
:1007E00061957F4F0895AA1BBB1B51E107C0AA1F4B
:1007F000BB1FA617B70710F0A61BB70B881F991FC2
:100800005A95A9F780959095BC01CD010895AEE069
:10081000B0E0EDE0F4E00C94C8060D891E8986E096
:100820008C831A8309838FEF9FE79E838D83AE01AC
:10083000475E5F4F6F89788DCE0101960E94290433
:10084000EF81F885E00FF11F10822E96E4E00C9402
:10085000E406ABE0B0E0EFE2F4E00C94BA066C0121
:100860007B018A01FC0117821682838181FFCCC142
:10087000CE0101963C01F6019381F70193FD85912C
:1008800093FF81917F01882309F4BAC1853239F43D
:1008900093FD859193FF81917F01853229F4B60103
:1008A00090E00E942006E7CF912C212C312CFFE113
:1008B000F315D8F08B3279F038F4803279F0833246
:1008C000A1F4232D20611DC08D3261F0803369F4C5
:1008D000232D216016C0832D8260382EE32DE46025
:1008E0003E2E2AC0F32DF8601DC037FC2DC020ED30
:1008F000280F2A3040F08E32B9F436FC81C1232D06
:100900002064322E19C036FE06C08AE0989E200D63
:100910001124922E11C0EAE02E9E200D1124222EC9
:10092000F32DF0623F2E08C08C3621F4832D8068B1
:10093000382E02C0883641F4F70193FD859193FF6C
:1009400081917F018111B3CF982F9F7D9554933072
:1009500028F40C5F1F4F9FE399830DC0833631F05D
:10096000833771F0833509F059C021C0F8018081C7
:1009700089830E5F1F4F88248394912C530113C0E9
:100980002801F2E04F0E511CF801A080B18036FE24
:1009900003C0692D70E002C06FEF7FEFC5010E94B8
:1009A00015064C018201F32DFF773F2E16C028015A
:1009B00022E0420E511CF801A080B18036FE03C037
:1009C000692D70E002C06FEF7FEFC5010E940A063B
:1009D0004C01F32DF0683F2E820133FC1BC0822DA9
:1009E00090E088169906B0F4B60180E290E00E948B
:1009F00020062A94F4CFF50137FC859137FE8191CA
:100A00005F01B60190E00E94200621102A9421E0A7
:100A1000821A91088114910471F7E8C0843611F0AC
:100A2000893641F5F80137FE07C060817181828106
:100A300093810C5F1F4F08C060817181072E000CED
:100A4000880B990B0E5F1F4FF32DFF763F2E97FFFC
:100A500009C090958095709561957F4F8F4F9F4FFE
:100A6000F0683F2E2AE030E0A3010E945C06882E49
:100A7000861845C0853731F4232D2F7EB22E2AE00B
:100A800030E025C0932D997FB92E8F36C1F018F430
:100A9000883579F0B5C0803719F0883721F0B0C0BB
:100AA000E92FE061BE2EB4FE0DC0FB2DF460BF2E19
:100AB00009C034FE0AC0292F2660B22E06C028E0E5
:100AC00030E005C020E130E002C020E132E0F80172
:100AD000B7FE07C060817181828193810C5F1F4FD7
:100AE00006C06081718180E090E00E5F1F4FA3011E
:100AF0000E945C06882E8618FB2DFF773F2E36FE5F
:100B00000DC0232D2E7FA22E891458F434FE0BC065
:100B100032FC09C0832D8E7EA82E05C0B82CA32CD4
:100B200003C0B82C01C0B92CA4FE0FC0FE01E80D13
:100B3000F11D8081803321F49A2D997EA92E09C060
:100B4000A2FE06C0B394B39404C08A2D867809F03F
:100B5000B394A3FC11C0A0FE06C0B21488F4280C04
:100B6000922C9B180EC0B21460F4B60180E290E0A3
:100B70000E942006B394F7CFB21418F42B1802C0C9
:100B8000982C212CA4FE10C0B60180E390E00E94B6
:100B90002006A2FE17C0A1FC03C088E790E002C0B7
:100BA00088E590E0B6010CC08A2D867859F0A1FE48
:100BB00002C08BE201C080E2A7FC8DE2B60190E0AA
:100BC0000E942006891438F4B60180E390E00E9468
:100BD00020069A94F7CF8A94F301E80DF11D8081E5
:100BE000B60190E00E9420068110F5CF222009F482
:100BF00042CEB60180E290E00E9420062A94F6CF11
:100C0000F6018681978102C08FEF9FEF2B96E2E17C
:100C10000C94D606FC010590615070400110D8F785
:100C2000809590958E0F9F1F0895FC016150704034
:100C300001900110D8F7809590958E0F9F1F089511
:100C40000F931F93CF93DF93FB01238121FD03C0FB
:100C50008FEF9FEF2CC022FF16C046815781248161
:100C600035814217530744F4A081B1819D012F5F64
:100C70003F4F318320838C93268137812F5F3F4FF5
:100C80003783268314C08B01EC01FB010084F185BE
:100C9000E02D0995892BE1F6D80116968D919C914E
:100CA0001797019617969C938E931697CE01DF9116
:100CB000CF911F910F910895FA01AA27283051F181
:100CC000203181F1E8946F936E7F6E5F7F4F8F4F7D
:100CD0009F4FAF4FB1E03ED0B4E03CD0670F781FDC
:100CE000891F9A1FA11D680F791F8A1F911DA11DC1
:100CF0006A0F711D811D911DA11D20D009F46894FA
:100D00003F912AE0269F11243019305D3193DEF6A1
:100D1000CF010895462F4770405D4193B3E00FD057
:100D2000C9F7F6CF462F4F70405D4A3318F0495D42
:100D300031FD4052419302D0A9F7EACFB4E0A69525
:100D40009795879577956795BA95C9F70097610547
:100D5000710508959B01AC010A2E0694579547959D
:100D600037952795BA95C9F7620F731F841F951F92
:100D7000A01D08952F923F924F925F926F927F92A3
:100D80008F929F92AF92BF92CF92DF92EF92FF929B
:100D90000F931F93CF93DF93CDB7DEB7CA1BDB0B47
:100DA0000FB6F894DEBF0FBECDBF09942A883988EC
:100DB00048885F846E847D848C849B84AA84B984F3
:100DC000C884DF80EE80FD800C811B81AA81B981FF
:100DD000CE0FD11D0FB6F894DEBF0FBECDBFED0113
:060DE0000895F894FFCF16
:100DE6001F001C001F001E001F001E001F001F000A
:100DF6001E001F001E001F003132334134353642BB
:100E0600373839432A302344004500253032642FD1
:100E1600253032642F253034642020257320256345
:100E260000253032643A253032643A253032642067
:100E36002530346400253032643A253032643A2550
:040E460030326400E2
:00000001FF
