:100000000C942A000C9447000C9447000C94470071
:100010000C9447000C9447000C9447000C94470044
:100020000C9447000C9447000C9447000C94470034
:100030000C9447000C9447000C9447000C94470024
:100040000C9447000C9447000C9447000C94470014
:100050000C94470011241FBECFE5D8E0DEBFCDBF12
:1000600011E0A0E6B0E0E6E7F6E102C005900D92EF
:10007000A231B107D9F721E0A2E1B1E001C01D92A0
:10008000AE38B207E1F70E942D050C94390B0C94A1
:1000900000008FE081BD08959C0183E083BF83E869
:1000A00008C082BF98B7916098BFA89508B600FEB7
:1000B000FDCF21503109A8F713BE08959C0183E0BC
:1000C00083BF89EF08C082BF98B7916098BFA89599
:1000D00008B600FEFDCF21503109A8F713BE0895E0
:1000E000662311F0C09A01C0C098C19882BB8FEFFF
:1000F00081BBC29A000000000000C2980895C09819
:10010000C19A11BA90B3C29A00000000000011BA5F
:1001100090B3C29899239CF30E9470000895B89AF6
:10012000B99ABA9A80E190E00E944C0060E080E3C6
:100130000E94700085E090E00E944C0060E080E347
:100140000E94700081E090E00E944C0060E08CE32F
:100150000E947F0060E08CE00E947F0060E086E00B
:100160000E947F0060E081E00E947F00089560E0CF
:1001700081E00E947F000895CF93C62F98E2899F67
:10018000C00D112460E082E00E947F00CC2331F09A
:1001900060E084E10E947F00C150D1F7CF910895C3
:1001A000CF93DF93EC012196FC018081882331F00D
:1001B00061E00E947F0089918111FACFDF91CF9198
:1001C0000895CF93DF9314BA15BA44B321E030E019
:1001D000F90102C0EE0FFF1F8A95E2F7CF01842BD1
:1001E00084BB85B3EB0124960C2E02C0220F331F73
:1001F0000A94E2F7282B25BB81E090E00E944C0096
:1002000023B330E002C035952795CA95E2F781E027
:1002100090E020FF02C080E090E0DF91CF91089550
:100220000F931F93CF93DF9300E010E018C0BE013F
:10023000C8010E94E100009749F0000F111F000F54
:10024000111FC00FD11FCE0101960CC02196C430E2
:10025000D10569F70F5F1F4F0430110519F0C0E099
:10026000D0E0E5CFDF91CF911F910F9108956F926C
:100270007F928F929F92AF92BF92CF92DF92EF9236
:10028000FF920F931F93CF93DF93EB01BC01990F64
:10029000880B990B0E945A079B01AC0160E070E447
:1002A0008CE996E40E94B0060E9499060E942207FB
:1002B0004B015C018B01772314F40F5F1F4F1595E1
:1002C00007956017710719F4840101501109640141
:1002D000C01AD10A80ED97E00E942708CB01BE0129
:1002E0000E9427083B017B011616170674F4C0E034
:1002F000D0E0C39AC8010E945E00C398C6010E9464
:100300005E002196EC16FD06A1F7689C9001699CA1
:10031000300D789C300D112480ED97E0821B930BFB
:100320000E945E00DF91CF911F910F91FF90EF909F
:10033000DF90CF90BF90AF909F908F907F906F9005
:100340000895E0911C01F0911D01EE0FFF1FEC5983
:10035000FF4F60817181E0916200F0916300EE0FC8
:10036000FF1FE659FF4F808191810E943701089558
:1003700080916200909163008B3091052CF401967E
:100380009093630080936200089580916200909141
:100390006300181619062CF401979093630080935C
:1003A00062000895FC018681978101968A3091054B
:1003B0001CF49783868307C01782168284819581F7
:1003C00001969583848384819581CC973CF0158236
:1003D00014828281938101969383828382819381A7
:1003E000CC973CF013821282808191810196918397
:1003F000808380819181489714F011821082089542
:10040000AF92BF92CF92DF92EF92FF920F931F9322
:10041000CF93DF93CDB7DEB7A6970FB6F894DEBFC4
:100420000FBECDBF0E94B70080915D01813021F0E9
:1004300083E990E0F82E03C085E990E0F82E8091E2
:100440001E018130C1F4809118019091190101962B
:100450009F938F9387E990E09F938F93CE0181962E
:100460009F938F930E944F080F900F900F900F90C3
:100470000F900F9021C0809128018130C1F48091AC
:1004800018019091190101969F938F938BE990E049
:100490009F938F93CE0181969F938F930E944F08D5
:1004A0000F900F900F900F900F900F9005C080E26B
:1004B00090E29AA389A31BA2809153018130C1F4D9
:1004C000809162009091630001969F938F938FE9D2
:1004D00090E09F938F93CE0184969F938F930E9479
:1004E0004F080F900F900F900F900F900F9008C033
:1004F00080E290E29DA38CA380E290E09FA38EA374
:100500000F2D10E0CE0184969F938F9303979F93B6
:100510008F931F92FF92E4E5F1E085818F938481B0
:100520008F9383818F9382818F9381818F93808139
:100530008F9384EA90E09F938F93CE0101969F93CF
:100540008F930E944F08809151010FB6F894DEBF3F
:100550000FBECDBF81112CC0809114019091150167
:10056000FC01EE0FFF1FEE0FFF1FEE0FFF1FE75DF9
:10057000FE4F01969F938F9385818F9384818F93F4
:1005800083818F9382818F9381818F9380818F93D9
:100590008AEB90E09F938F93CE0141969F938F9328
:1005A0000E944F080FB6F894DEBF0FBECDBF69C0E2
:1005B000813009F049C0E0911201F0911301EE0F72
:1005C000FF1FEE0FFF1FEE0FFF1FE25AFE4FF080DE
:1005D000E180D280C380B480A5801F930F93E6E8AA
:1005E000F1E085818F9384818F9383818F938281C2
:1005F0008F9381818F9380818F9382ED90E09F9381
:100600008F93CE0101969F938F930E944F08809104
:1006100012019091130101969F938F93AF92BF9215
:10062000CF92DF92EF92FF928AEE90E09F938F93AA
:10063000CE0141969F938F930E944F080FB6F89476
:10064000DEBF0FBECDBF1DC0E0E2F1E085818F931C
:1006500084818F9383818F9382818F9381818F9304
:1006600080818F938DEF90E09F938F93CE01419681
:100670009F938F930E944F080FB6F894DEBF0FBE72
:10068000CDBFCE0101960E94D00060E081E00E94C3
:10069000BC00CE0141960E94D000A6960FB6F894F9
:1006A000DEBF0FBECDBFDF91CF911F910F91FF90A5
:1006B000EF90DF90CF90BF90AF90089580911E0192
:1006C000813059F410921E011092190110921801F4
:1006D00010921B0110921A01089581E080931E016F
:1006E000089520911801309119012115310559F40F
:1006F00020911A0130911B0128313105FCF4FC01D5
:100700003183208308952130310559F420911A0155
:1007100030911B012C3331058CF4FC01338322838F
:1007200008952230310551F420911A0130911B01B6
:100730002C3331051CF4FC013583248308958E5736
:100740009F4FFC01808190E0C0978A309105C0F4F2
:1007500020911A0130911B01243631058CF4A90136
:10076000440F551F220F331F220F331F220F331F39
:10077000240F351F820F931F90931B0180931A0142
:10078000089510921B0110921A0180911801909106
:100790001901823091052CF40196909319018093F0
:1007A0001801089510921B0110921A0180911801EE
:1007B00090911901181619062CF4019790931901BC
:1007C00080931801089580912801813059F4109286
:1007D0002801109219011092180110921B01109219
:1007E0001A01089581E0809328010895CF92DF9245
:1007F000EF92FF920F931F93CF93DF93E4E5F1E025
:100800008081918162817381C481D581F090520190
:100810000091160110911701E9E2F1E041E551E084
:10082000C12CD12CEE24E394009729F461157105B5
:1008300011F4209791F0208131818217930769F498
:10084000228133816217730741F424813581C217F5
:10085000D30719F40C2D1D2DFE2C3896E417F5073F
:1008600019F7F09252010093160110931701DF91CE
:10087000CF911F910F91FF90EF90DF90CF9008954F
:100880008091140190911501843091052CF401960A
:100890009093150180931401089580911401909113
:1008A0001501181619062CF40197909315018093E1
:1008B00014010895CF93DF93CDB7DEB728970FB615
:1008C000F894DEBF0FBECDBF29833A834B835C8390
:1008D0006D837E838F8398878EE591E04EE351E0B0
:1008E00028E0FC017896DC01909601900D922A9503
:1008F000E1F708978417950799F788E0FE0131968C
:10090000AEE5B1E001900D928A95E1F728960FB619
:10091000F894DEBF0FBECDBFDF91CF9108958091D7
:10092000120190911301843091052CF4019690935B
:100930001301809312010895809112019091130187
:10094000181619062CF40197909313018093120145
:10095000089510925C01E6E8F1E0118210821382A2
:1009600012821582148217821682089510921F0136
:10097000E0E2F1E011821082138212821582148269
:10098000178216820895FC01868197811816190630
:100990000CF446C0848195811816190624F18281D1
:1009A0009381181619069CF08081918118161906FA
:1009B00014F50197918380838BE390E09383828386
:1009C000958384838AE090E09783868329C001978A
:1009D000938382838BE390E0958384838AE090E025
:1009E000978386831DC00197958384838AE090E076
:1009F0009783868315C086819781892BB9F484817A
:100A00009581892B99F482819381892B79F4808156
:100A10009181892B59F48FEF9FEF978386830895F7
:100A200086819781019797838683E5CF089580918A
:100A30005301813019F410925301089581E080939D
:100A40005301089580915D01813019F410925D0188
:100A5000089581E080935D01089588E087BB0E943E
:100A600049000E948F00FF24F39402E01F2D0E9492
:100A70001001EC01219768F0FE01EE57FF4F8081D5
:100A8000813419F40E94220504C0823411F40E94BA
:100A9000170580915D01813099F4FE01EE57FF4FFB
:100AA0008081813319F4109251011FC0823319F4EF
:100AB000109351017FC0833319F4009351017AC020
:100AC00080915301813069F4FE01EE57FF4F808120
:100AD0008A3219F40E94C50104C0833211F40E94C5
:100AE000B80180915101811165C0FE01EE57FF4FA1
:100AF0008081833419F40E94E30304C0843411F428
:100B00000E945E0380911E018130D9F4CF3F8FEFA8
:100B1000D80709F44FC0FE01EE57FF4F80818A329B
:100B200019F40E94D20346C0833219F40E94C10313
:100B300041C0CE010E949F0384E591E00E947103B1
:100B400039C080912801813021F5CF3F2FEFD207A6
:100B500089F1FE01EE57FF4F80818A3219F40E941D
:100B6000D20328C0833219F40E94C10323C0CE01EE
:100B70000E949F038091140190911501880F991F85
:100B8000880F991F880F991F875D9E4F0E947103E0
:100B900011C08091530181110DC0FE01EE57FF4F2E
:100BA00080818A3219F40E944D0404C0833211F40A
:100BB0000E94400480915101813091F5FE01EE5771
:100BC000FF4F8081813319F410935C0169C0823337
:100BD00019F410925C0164C0833319F40E94A904D3
:100BE0001FC0843399F42091860130918701409190
:100BF00088015091890160918A0170918B018091E7
:100C00008C0190918D010E945A040AC08A3219F415
:100C10000E949C0405C0833209F042C00E948F04E8
:100C2000809151018230E1F5FE01EE57FF4F808146
:100C3000843411F40E945E0380911E018130D1F44E
:100C4000CF3F8FEFD80761F1FE01EE57FF4F808154
:100C50008A3219F40E94D20323C0833219F40E940D
:100C6000C1031EC0CE010E949F0380E291E00E945A
:100C7000710316C0FE01EE57FF4F8081813319F4D6
:100C800010931F010DC0823329F410921F0110929E
:100C9000520106C0833321F40E94B604109252011F
:100CA0000E940002809152018130F1F40E94A10162
:100CB00080911601909117010196909317018093EE
:100CC000160120916000309161008217930729F08E
:100CD000CE57DF4F8881813359F410925201109220
:100CE00017011092160104C084E690E00E944C00A7
:100CF00084E591E00E94D2010E94F60380915C019C
:100D0000813021F486E891E00E94D20180911F0198
:100D1000813009F0ACCE80E291E00E94C304809162
:100D2000260190912701019609F0A1CEF09252017F
:100D30009ECE0E94080890F09F3748F4911116F457
:100D40000C94210860E070E080E89FE3089526F0AD
:100D50001B16611D711D811D0C949B070C94B60719
:100D60000E94C4060C94D5070E94CE0758F00E943A
:100D7000C70740F029F45F3F29F00C949507511103
:100D80000C9421080C94C4070E94E60768F3992389
:100D9000B1F3552391F3951B550BBB27AA27621777
:100DA0007307840738F09F5F5F4F220F331F441F84
:100DB000AA1FA9F335D00E2E3AF0E0E832D09150B8
:100DC0005040E695001CCAF72BD0FE2F29D0660FA5
:100DD000771F881FBB1F261737074807AB07B0E8E8
:100DE00009F0BB0B802DBF01FF2793585F4F3AF0EE
:100DF0009E3F510578F00C9495070C9421085F3FB5
:100E0000E4F3983ED4F3869577956795B795F79573
:100E10009F5FC9F7880F911D9695879597F908955B
:100E2000E1E0660F771F881FBB1F621773078407F7
:100E3000BA0720F0621B730B840BBA0BEE1F88F706
:100E4000E09508950E9429076894B1110C94210837
:100E500008950E94EE0788F09F5798F0B92F9927C0
:100E6000B751B0F0E1F0660F771F881F991F1AF095
:100E7000BA95C9F714C0B13091F00E942008B1E0D2
:100E800008950C942008672F782F8827B85F39F0D1
:100E9000B93FCCF3869577956795B395D9F73EF42E
:100EA00090958095709561957F4F8F4F9F4F0895D6
:100EB000E89409C097FB3EF49095809570956195F4
:100EC0007F4F8F4F9F4F9923A9F0F92F96E9BB27AA
:100ED0009395F695879577956795B795F111F8CF26
:100EE000FAF4BB0F11F460FF1BC06F5F7F4F8F4F91
:100EF0009F4F16C0882311F096E911C0772321F087
:100F00009EE8872F762F05C0662371F096E8862F1E
:100F100070E060E02AF09A95660F771F881FDAF775
:100F2000880F9695879597F9089597F99F6780E8B8
:100F300070E060E00895882371F4772321F09850E1
:100F4000872B762F07C0662311F499270DC0905187
:100F5000862B70E060E02AF09A95660F771F881F55
:100F6000DAF7880F9695879597F908959F3F31F0A6
:100F7000915020F4879577956795B795880F911DC7
:100F80009695879597F908959FEF80EC0895002432
:100F90000A941616170618060906089500240A94DE
:100FA00012161306140605060895092E0394000C64
:100FB00011F4882352F0BB0F40F4BF2B11F460FFF3
:100FC00004C06F5F7F4F8F4F9F4F089557FD90581C
:100FD000440F551F59F05F3F71F04795880F97FBFD
:100FE000991F61F09F3F79F08795089512161306B7
:100FF0001406551FF2CF4695F1DF08C016161706E6
:101000001806991FF1CF869571056105089408951A
:101010000E94EE07A0F0BEE7B91788F4BB279F38FF
:1010200060F41616B11D672F782F8827985FF7CFC9
:10103000869577956795B11D93959639C8F3089570
:10104000E894BB2766277727CB0197F9089597FB8C
:10105000072E16F4009407D077FD09D00E943B08B4
:1010600007FC05D03EF4909581959F4F08957095AB
:1010700061957F4F0895AA1BBB1B51E107C0AA1FB2
:10108000BB1FA617B70710F0A61BB70B881F991F29
:101090005A95A9F780959095BC01CD010895AEE0D1
:1010A000B0E0E5E5F8E00C94100B0D891E8986E0B0
:1010B0008C831A8309838FEF9FE79E838D83AE0114
:1010C000475E5F4F6F89788DCE0101960E9471084F
:1010D000EF81F885E00FF11F10822E96E4E00C946A
:1010E0002C0BABE0B0E0E7E7F8E00C94020B6C01EE
:1010F0007B018A01FC0117821682838181FFCCC1AA
:10110000CE0101963C01F6019381F70193FD859193
:1011100093FF81917F01882309F4BAC1853239F4A4
:1011200093FD859193FF81917F01853229F4B6016A
:1011300090E00E94680AE7CF912C212C312CFFE12E
:10114000F315D8F08B3279F038F4803279F08332AD
:10115000A1F4232D20611DC08D3261F0803369F42C
:10116000232D216016C0832D8260382EE32DE4608C
:101170003E2E2AC0F32DF8601DC037FC2DC020ED97
:10118000280F2A3040F08E32B9F436FC81C1232D6D
:101190002064322E19C036FE06C08AE0989E200DCB
:1011A0001124922E11C0EAE02E9E200D1124222E31
:1011B000F32DF0623F2E08C08C3621F4832D806819
:1011C000382E02C0883641F4F70193FD859193FFD4
:1011D00081917F018111B3CF982F9F7D95549330DA
:1011E00028F40C5F1F4F9FE399830DC0833631F0C5
:1011F000833771F0833509F059C021C0F80180812F
:1012000089830E5F1F4F88248394912C530113C050
:101210002801F2E04F0E511CF801A080B18036FE8B
:1012200003C0692D70E002C06FEF7FEFC5010E941F
:101230005D0A4C018201F32DFF773F2E16C0280175
:1012400022E0420E511CF801A080B18036FE03C09E
:10125000692D70E002C06FEF7FEFC5010E94520A56
:101260004C01F32DF0683F2E820133FC1BC0822D10
:1012700090E088169906B0F4B60180E290E00E94F2
:10128000680A2A94F4CFF50137FC859137FE8191E5
:101290005F01B60190E00E94680A21102A9421E0C3
:1012A000821A91088114910471F7E8C0843611F014
:1012B000893641F5F80137FE07C06081718182816E
:1012C00093810C5F1F4F08C060817181072E000C55
:1012D000880B990B0E5F1F4FF32DFF763F2E97FF64
:1012E00009C090958095709561957F4F8F4F9F4F66
:1012F000F0683F2E2AE030E0A3010E94A40A882E65
:10130000861845C0853731F4232D2F7EB22E2AE072
:1013100030E025C0932D997FB92E8F36C1F018F497
:10132000883579F0B5C0803719F0883721F0B0C022
:10133000E92FE061BE2EB4FE0DC0FB2DF460BF2E80
:1013400009C034FE0AC0292F2660B22E06C028E04C
:1013500030E005C020E130E002C020E132E0F801D9
:10136000B7FE07C060817181828193810C5F1F4F3E
:1013700006C06081718180E090E00E5F1F4FA30185
:101380000E94A40A882E8618FB2DFF773F2E36FE7A
:101390000DC0232D2E7FA22E891458F434FE0BC0CD
:1013A00032FC09C0832D8E7EA82E05C0B82CA32C3C
:1013B00003C0B82C01C0B92CA4FE0FC0FE01E80D7B
:1013C000F11D8081803321F49A2D997EA92E09C0C8
:1013D000A2FE06C0B394B39404C08A2D867809F0A7
:1013E000B394A3FC11C0A0FE06C0B21488F4280C6C
:1013F000922C9B180EC0B21460F4B60180E290E00B
:101400000E94680AB394F7CFB21418F42B1802C0E4
:10141000982C212CA4FE10C0B60180E390E00E941D
:10142000680AA2FE17C0A1FC03C088E790E002C0D2
:1014300088E590E0B6010CC08A2D867859F0A1FEAF
:1014400002C08BE201C080E2A7FC8DE2B60190E011
:101450000E94680A891438F4B60180E390E00E9483
:10146000680A9A94F7CF8A94F301E80DF11D808100
:10147000B60190E00E94680A8110F5CF222009F49D
:1014800042CEB60180E290E00E94680A2A94F6CF2C
:10149000F6018681978102C08FEF9FEF2B96E2E1E4
:1014A0000C941E0BFC010590615070400110D8F7A0
:1014B000809590958E0F9F1F0895FC01615070409C
:1014C00001900110D8F7809590958E0F9F1F089579
:1014D0000F931F93CF93DF93FB01238121FD03C063
:1014E0008FEF9FEF2CC022FF16C0468157812481C9
:1014F00035814217530744F4A081B1819D012F5FCC
:101500003F4F318320838C93268137812F5F3F4F5C
:101510003783268314C08B01EC01FB010084F18525
:10152000E02D0995892BE1F6D80116968D919C91B5
:101530001797019617969C938E931697CE01DF917D
:10154000CF911F910F910895FA01AA27283051F1E8
:10155000203181F1E8946F936E7F6E5F7F4F8F4FE4
:101560009F4FAF4FB1E03ED0B4E03CD0670F781F43
:10157000891F9A1FA11D680F791F8A1F911DA11D28
:101580006A0F711D811D911DA11D20D009F4689461
:101590003F912AE0269F11243019305D3193DEF609
:1015A000CF010895462F4770405D4193B3E00FD0BF
:1015B000C9F7F6CF462F4F70405D4A3318F0495DAA
:1015C00031FD4052419302D0A9F7EACFB4E0A6958D
:1015D0009795879577956795BA95C9F700976105AF
:1015E000710508959B01AC010A2E06945795479505
:1015F00037952795BA95C9F7620F731F841F951FFA
:10160000A01D08952F923F924F925F926F927F920A
:101610008F929F92AF92BF92CF92DF92EF92FF9202
:101620000F931F93CF93DF93CDB7DEB7CA1BDB0BAE
:101630000FB6F894DEBF0FBECDBF09942A88398853
:1016400048885F846E847D848C849B84AA84B9845A
:10165000C884DF80EE80FD800C811B81AA81B98166
:10166000CE0FD11D0FB6F894DEBF0FBECDBFED017A
:061670000895F894FFCF7D
:1016760032000700010002000400DC00E900F60069
:10168600050115012501370149015D017101870138
:101696009F013132334134353642373839432A30A7
:1016A600234400200043005425640041256400467D
:1016B60025306400253032643A253032643A2530CC
:1016C60032642025732573257300253032643A254C
:1016D6003032643A2530326420256420414C415230
:1016E6004D00253032643A253032643A2530326472
:1016F60020257320574154434800253032643A254B
:101706003032643A25303264205225640025303266
:10171600643A253032643A253032642054494D45C6
:0217260052006F
:00000001FF
